{
  "contractName": "Hasher",
  "abi": [
    {
      "constant": true,
      "inputs": [
        {
          "internalType": "uint256[]",
          "name": "array",
          "type": "uint256[]"
        },
        {
          "internalType": "uint256",
          "name": "key",
          "type": "uint256"
        }
      ],
      "name": "hashMulti",
      "outputs": [
        {
          "internalType": "uint256",
          "name": "",
          "type": "uint256"
        }
      ],
      "payable": false,
      "stateMutability": "pure",
      "type": "function"
    },
    {
      "constant": true,
      "inputs": [
        {
          "internalType": "uint256",
          "name": "left",
          "type": "uint256"
        },
        {
          "internalType": "uint256",
          "name": "right",
          "type": "uint256"
        }
      ],
      "name": "hashPair",
      "outputs": [
        {
          "internalType": "uint256",
          "name": "",
          "type": "uint256"
        }
      ],
      "payable": false,
      "stateMutability": "pure",
      "type": "function"
    },
    {
      "constant": true,
      "inputs": [
        {
          "internalType": "uint256",
          "name": "publicKeyX",
          "type": "uint256"
        },
        {
          "internalType": "uint256",
          "name": "publicKeyY",
          "type": "uint256"
        },
        {
          "internalType": "uint256",
          "name": "balance",
          "type": "uint256"
        },
        {
          "internalType": "uint256",
          "name": "nonce",
          "type": "uint256"
        }
      ],
      "name": "hashBalanceTreeLeaf",
      "outputs": [
        {
          "internalType": "uint256",
          "name": "",
          "type": "uint256"
        }
      ],
      "payable": false,
      "stateMutability": "pure",
      "type": "function"
    }
  ],
  "bytecode": "0x608060405234801561001057600080fd5b5061048e806100206000396000f3fe608060405234801561001057600080fd5b506004361061005e576000357c01000000000000000000000000000000000000000000000000000000009004806366d82b2b146100635780636895e8dc146100af578063c73f4f9a14610185575b600080fd5b6100996004803603604081101561007957600080fd5b8101908080359060200190929190803590602001909291905050506101e5565b6040518082815260200191505060405180910390f35b61016f600480360360408110156100c557600080fd5b81019080803590602001906401000000008111156100e257600080fd5b8201836020820111156100f457600080fd5b8035906020019184602083028401116401000000008311171561011657600080fd5b919080806020026020016040519081016040528093929190818152602001838360200280828437600081840152601f19601f82011690508083019250505050505050919291929080359060200190929190505050610264565b6040518082815260200191505060405180910390f35b6101cf6004803603608081101561019b57600080fd5b81019080803590602001909291908035906020019092919080359060200190929190803590602001909291905050506103a4565b6040518082815260200191505060405180910390f35b6000606060026040519080825280602002602001820160405280156102195781602001602082028038833980820191505090505b509050838160008151811061022a57fe5b602002602001018181525050828160018151811061024457fe5b60200260200101818152505061025b816000610264565b91505092915050565b6000807f30644e72e131a029b85045b68181585d2833e84879b9709143e1f593f000000190506000809050600080905060008090505b86518110156103975783806102ab57fe5b8782815181106102b757fe5b60200260200101518408925073__CircomLib_____________________________633f1a11878484896040518463ffffffff167c0100000000000000000000000000000000000000000000000000000000028152600401808481526020018381526020018281526020019350505050604080518083038186803b15801561033d57600080fd5b505af4158015610351573d6000803e3d6000fd5b505050506040513d604081101561036757600080fd5b8101908080519060200190929190805190602001909291905050508093508194505050808060010191505061029a565b5081935050505092915050565b6000606060046040519080825280602002602001820160405280156103d85781602001602082028038833980820191505090505b50905085816000815181106103e957fe5b602002602001018181525050848160018151811061040357fe5b602002602001018181525050838160028151811061041d57fe5b602002602001018181525050828160038151811061043757fe5b60200260200101818152505061044e816000610264565b91505094935050505056fea265627a7a723158201b1d69dae9a3cc29934ae09cc04a8596391392b8411ad7e3ea6b63e69a421f3c64736f6c634300050b0032",
  "source": "/*\n * Hasher object to abstract out hashing logic\n * to be shared between multiple files\n *\n * Copyright (C) 2019 Kendrick Tan <kendricktan0814@gmail.com>\n *\n * This file is part of simple-zk-rollups\n * Everyone is permitted to copy and distribute verbatim or modified\n * copies of this license document, and changing it is allowed as long\n * as the name is changed.\n *           DO WHAT THE FUCK YOU WANT TO PUBLIC LICENSE\n *   TERMS AND CONDITIONS FOR COPYING, DISTRIBUTION AND MODIFICATION\n * 0. You just DO WHAT THE FUCK YOU WANT TO.\n */\n\npragma solidity 0.5.11;\n\nlibrary CircomLib {\n    function MiMCSponge(uint256 xL_in, uint256 xR_in, uint256 k) public pure returns (uint256 xL, uint256 xR);\n}\n\ncontract Hasher {\n    function hashMulti(uint256[] memory array, uint256 key) public pure returns (uint256) {\n        uint256 k = 21888242871839275222246405745257275088548364400416034343698204186575808495617;\n        uint256 R = 0;\n        uint256 C = 0;\n\n        for (uint256 i = 0; i < array.length; i++)\n        {\n            R = addmod(R, array[i], k);\n            (R, C) = CircomLib.MiMCSponge(R, C, key);\n        }\n        \n        return R;\n    }\n\n    function hashPair(uint256 left, uint256 right) public pure returns (uint256) {\n        uint256[] memory arr = new uint256[](2);\n        arr[0] = left;\n        arr[1] = right;\n\n        return hashMulti(arr, 0);\n    }\n\n    function hashBalanceTreeLeaf(\n        uint256 publicKeyX,\n        uint256 publicKeyY,\n        uint256 balance,\n        uint256 nonce\n    ) public pure returns (uint256) {\n        uint256[] memory arr = new uint256[](4);\n        arr[0] = publicKeyX;\n        arr[1] = publicKeyY;\n        arr[2] = balance;\n        arr[3] = nonce;\n\n        return hashMulti(arr, 0);\n    }\n}",
  "sourcePath": "/Users/kendrick/Development/Ethereum/simple-zk-rollups/contracts/contracts/Hasher.sol",
  "compiler": {
    "name": "solc",
    "version": "0.5.11+commit.c082d0b4.Emscripten.clang"
  },
  "schemaVersion": "3.0.21",
  "updatedAt": "2020-01-23T19:46:17.725Z",
  "networkType": "ethereum",
  "devdoc": {
    "methods": {}
  },
  "userdoc": {
    "methods": {}
  }
}