{
  "contractName": "MerkleTree",
  "abi": [
    {
      "constant": false,
      "inputs": [
        {
          "internalType": "address",
          "name": "user",
          "type": "address"
        }
      ],
      "name": "whitelistAddress",
      "outputs": [],
      "payable": false,
      "stateMutability": "nonpayable",
      "type": "function"
    },
    {
      "constant": false,
      "inputs": [],
      "name": "renounceOwnership",
      "outputs": [],
      "payable": false,
      "stateMutability": "nonpayable",
      "type": "function"
    },
    {
      "constant": true,
      "inputs": [],
      "name": "owner",
      "outputs": [
        {
          "internalType": "address",
          "name": "",
          "type": "address"
        }
      ],
      "payable": false,
      "stateMutability": "view",
      "type": "function"
    },
    {
      "constant": true,
      "inputs": [],
      "name": "isOwner",
      "outputs": [
        {
          "internalType": "bool",
          "name": "",
          "type": "bool"
        }
      ],
      "payable": false,
      "stateMutability": "view",
      "type": "function"
    },
    {
      "constant": false,
      "inputs": [
        {
          "internalType": "address",
          "name": "user",
          "type": "address"
        }
      ],
      "name": "unWhitelistAddress",
      "outputs": [],
      "payable": false,
      "stateMutability": "nonpayable",
      "type": "function"
    },
    {
      "constant": false,
      "inputs": [
        {
          "internalType": "address",
          "name": "newOwner",
          "type": "address"
        }
      ],
      "name": "transferOwnership",
      "outputs": [],
      "payable": false,
      "stateMutability": "nonpayable",
      "type": "function"
    },
    {
      "inputs": [
        {
          "internalType": "uint256",
          "name": "_depth",
          "type": "uint256"
        },
        {
          "internalType": "uint256",
          "name": "_zeroValue",
          "type": "uint256"
        },
        {
          "internalType": "address",
          "name": "hasherAddress",
          "type": "address"
        }
      ],
      "payable": false,
      "stateMutability": "nonpayable",
      "type": "constructor"
    },
    {
      "anonymous": false,
      "inputs": [
        {
          "indexed": false,
          "internalType": "uint256",
          "name": "leaf",
          "type": "uint256"
        },
        {
          "indexed": false,
          "internalType": "uint256",
          "name": "leafIndex",
          "type": "uint256"
        }
      ],
      "name": "LeafAdded",
      "type": "event"
    },
    {
      "anonymous": false,
      "inputs": [
        {
          "indexed": false,
          "internalType": "uint256",
          "name": "leaf",
          "type": "uint256"
        },
        {
          "indexed": false,
          "internalType": "uint256",
          "name": "leafIndex",
          "type": "uint256"
        }
      ],
      "name": "LeafUpdated",
      "type": "event"
    },
    {
      "anonymous": false,
      "inputs": [
        {
          "indexed": true,
          "internalType": "address",
          "name": "previousOwner",
          "type": "address"
        },
        {
          "indexed": true,
          "internalType": "address",
          "name": "newOwner",
          "type": "address"
        }
      ],
      "name": "OwnershipTransferred",
      "type": "event"
    },
    {
      "constant": false,
      "inputs": [
        {
          "internalType": "uint256",
          "name": "leaf",
          "type": "uint256"
        }
      ],
      "name": "insert",
      "outputs": [],
      "payable": false,
      "stateMutability": "nonpayable",
      "type": "function"
    },
    {
      "constant": false,
      "inputs": [
        {
          "internalType": "uint256",
          "name": "leafIndex",
          "type": "uint256"
        },
        {
          "internalType": "uint256",
          "name": "leaf",
          "type": "uint256"
        }
      ],
      "name": "update",
      "outputs": [],
      "payable": false,
      "stateMutability": "nonpayable",
      "type": "function"
    },
    {
      "constant": true,
      "inputs": [
        {
          "internalType": "uint256",
          "name": "left",
          "type": "uint256"
        },
        {
          "internalType": "uint256",
          "name": "right",
          "type": "uint256"
        }
      ],
      "name": "hashLeftRight",
      "outputs": [
        {
          "internalType": "uint256",
          "name": "",
          "type": "uint256"
        }
      ],
      "payable": false,
      "stateMutability": "view",
      "type": "function"
    },
    {
      "constant": true,
      "inputs": [],
      "name": "getRoot",
      "outputs": [
        {
          "internalType": "uint256",
          "name": "",
          "type": "uint256"
        }
      ],
      "payable": false,
      "stateMutability": "view",
      "type": "function"
    },
    {
      "constant": true,
      "inputs": [],
      "name": "getDepth",
      "outputs": [
        {
          "internalType": "uint256",
          "name": "",
          "type": "uint256"
        }
      ],
      "payable": false,
      "stateMutability": "view",
      "type": "function"
    },
    {
      "constant": true,
      "inputs": [
        {
          "internalType": "uint256",
          "name": "leafIndex",
          "type": "uint256"
        }
      ],
      "name": "getLeafAt",
      "outputs": [
        {
          "internalType": "uint256",
          "name": "",
          "type": "uint256"
        }
      ],
      "payable": false,
      "stateMutability": "view",
      "type": "function"
    },
    {
      "constant": true,
      "inputs": [],
      "name": "getInsertedLeavesNo",
      "outputs": [
        {
          "internalType": "uint256",
          "name": "",
          "type": "uint256"
        }
      ],
      "payable": false,
      "stateMutability": "view",
      "type": "function"
    }
  ],
  "bytecode": "0x60806040523480156200001157600080fd5b50604051620019d4380380620019d4833981810160405260608110156200003757600080fd5b8101908080519060200190929190805190602001909291908051906020019092919050505062000075620004c0640100000000026401000000009004565b6000806101000a81548173ffffffffffffffffffffffffffffffffffffffff021916908373ffffffffffffffffffffffffffffffffffffffff1602179055506000809054906101000a900473ffffffffffffffffffffffffffffffffffffffff1673ffffffffffffffffffffffffffffffffffffffff16600073ffffffffffffffffffffffffffffffffffffffff167f8be0079c531659141344cd1fd0a4f28419497f9722a3daafe3b4186f6b6457e060405160405180910390a380600260006101000a81548173ffffffffffffffffffffffffffffffffffffffff021916908373ffffffffffffffffffffffffffffffffffffffff160217905550826003819055508260020a600781905550600a8290806001815401808255809150509060018203906000526020600020016000909192909190915055506008600a600081548110620001bf57fe5b906000526020600020015490806001815401808255809150509060018203906000526020600020016000909192909190915055506000600190505b6003548160ff1610156200039957600a600260009054906101000a900473ffffffffffffffffffffffffffffffffffffffff1673ffffffffffffffffffffffffffffffffffffffff166366d82b2b600a6001850360ff16815481106200025c57fe5b9060005260206000200154600a6001860360ff16815481106200027b57fe5b90600052602060002001546040518363ffffffff167c0100000000000000000000000000000000000000000000000000000000028152600401808381526020018281526020019250505060206040518083038186803b158015620002de57600080fd5b505afa158015620002f3573d6000803e3d6000fd5b505050506040513d60208110156200030a57600080fd5b810190808051906020019092919050505090806001815401808255809150509060018203906000526020600020016000909192909190915055506008600a8260ff16815481106200035757fe5b906000526020600020015490806001815401808255809150509060018203906000526020600020016000909192909190915055508080600101915050620001fa565b50600260009054906101000a900473ffffffffffffffffffffffffffffffffffffffff1673ffffffffffffffffffffffffffffffffffffffff166366d82b2b600a60016003540381548110620003eb57fe5b9060005260206000200154600a600160035403815481106200040957fe5b90600052602060002001546040518363ffffffff167c0100000000000000000000000000000000000000000000000000000000028152600401808381526020018281526020019250505060206040518083038186803b1580156200046c57600080fd5b505afa15801562000481573d6000803e3d6000fd5b505050506040513d60208110156200049857600080fd5b81019080805190602001909291905050506004819055506000600681905550505050620004c8565b600033905090565b6114fc80620004d86000396000f3fe608060405234801561001057600080fd5b50600436106100ec576000357c0100000000000000000000000000000000000000000000000000000000900480638da5cb5b116100a9578063af41b87111610083578063af41b87114610299578063cac9ffee146102b7578063d78f71fa146102fb578063f2fde38b1461033d576100ec565b80638da5cb5b146101ff5780638f32d59b1461024957806390b5561d1461026b576100ec565b80632fb565e8146100f1578063367506ef1461012957806341566585146101475780635bb939951461018b5780635ca1e165146101d7578063715018a6146101f5575b600080fd5b6101276004803603604081101561010757600080fd5b810190808035906020019092919080359060200190929190505050610381565b005b6101316109d4565b6040518082815260200191505060405180910390f35b6101896004803603602081101561015d57600080fd5b81019080803573ffffffffffffffffffffffffffffffffffffffff1690602001909291905050506109de565b005b6101c1600480360360408110156101a157600080fd5b810190808035906020019092919080359060200190929190505050610ab2565b6040518082815260200191505060405180910390f35b6101df610b8e565b6040518082815260200191505060405180910390f35b6101fd610b98565b005b610207610cd1565b604051808273ffffffffffffffffffffffffffffffffffffffff1673ffffffffffffffffffffffffffffffffffffffff16815260200191505060405180910390f35b610251610cfa565b604051808215151515815260200191505060405180910390f35b6102976004803603602081101561028157600080fd5b8101908080359060200190929190505050610d58565b005b6102a1611144565b6040518082815260200191505060405180910390f35b6102f9600480360360208110156102cd57600080fd5b81019080803573ffffffffffffffffffffffffffffffffffffffff16906020019092919050505061114e565b005b6103276004803603602081101561031157600080fd5b8101908080359060200190929190505050611223565b6040518082815260200191505060405180910390f35b61037f6004803603602081101561035357600080fd5b81019080803573ffffffffffffffffffffffffffffffffffffffff169060200190929190505050611244565b005b600160003373ffffffffffffffffffffffffffffffffffffffff1673ffffffffffffffffffffffffffffffffffffffff16815260200190815260200160002060009054906101000a900460ff16610423576040517f08c379a000000000000000000000000000000000000000000000000000000000815260040180806020018281038252602981526020018061143d6029913960400191505060405180910390fd5b600654821061047d576040517f08c379a000000000000000000000000000000000000000000000000000000000815260040180806020018281038252602f815260200180611499602f913960400191505060405180910390fd5b600082905060606003546040519080825280602002602001820160405280156104b55781602001602082028038833980820191505090505b50905060008090505b6003548160ff16101561058a576000600284816104d757fe5b06141561052957600960008260ff168152602001908152602001600020600060018501815260200190815260200160002054828260ff168151811061051857fe5b602002602001018181525050610570565b600960008260ff168152602001908152602001600020600060018503815260200190815260200160002054828260ff168151811061056357fe5b6020026020010181815250505b6002838161057a57fe5b04925080806001019150506104be565b5060006005858154811061059a57fe5b9060005260206000200154905060008086945060008090505b6003548160ff1610156106ff576000600287816105cc57fe5b0614156105f457839250848160ff16815181106105e557fe5b60200260200101519150610611565b848160ff168151811061060357fe5b602002602001015192508391505b600260009054906101000a900473ffffffffffffffffffffffffffffffffffffffff1673ffffffffffffffffffffffffffffffffffffffff166366d82b2b84846040518363ffffffff167c0100000000000000000000000000000000000000000000000000000000028152600401808381526020018281526020019250505060206040518083038186803b1580156106a857600080fd5b505afa1580156106bc573d6000803e3d6000fd5b505050506040513d60208110156106d257600080fd5b81019080805190602001909291905050509350600286816106ef57fe5b04955080806001019150506105b3565b50826004541461075a576040517f08c379a00000000000000000000000000000000000000000000000000000000081526004018080602001828103825260338152602001806114666033913960400191505060405180910390fd5b86945085925060008090505b6003548160ff1610156109685760006002878161077f57fe5b06141561080257839250848160ff168151811061079857fe5b6020026020010151915082600960008360ff16815260200190815260200160002060008881526020019081526020016000208190555081600960008360ff16815260200190815260200160002060006001890181526020019081526020016000208190555061087a565b848160ff168151811061081157fe5b6020026020010151925083915082600960008360ff16815260200190815260200160002060006001890381526020019081526020016000208190555081600960008360ff1681526020019081526020016000206000888152602001908152602001600020819055505b600260009054906101000a900473ffffffffffffffffffffffffffffffffffffffff1673ffffffffffffffffffffffffffffffffffffffff166366d82b2b84846040518363ffffffff167c0100000000000000000000000000000000000000000000000000000000028152600401808381526020018281526020019250505060206040518083038186803b15801561091157600080fd5b505afa158015610925573d6000803e3d6000fd5b505050506040513d602081101561093b57600080fd5b810190808051906020019092919050505093506002868161095857fe5b0495508080600101915050610766565b5082600481905550856005888154811061097e57fe5b90600052602060002001819055507f5983a314e5149c32e4931f98348011a8eaa8d5546981ce338f790050fad852698688604051808381526020018281526020019250505060405180910390a150505050505050565b6000600354905090565b6109e6610cfa565b610a58576040517f08c379a00000000000000000000000000000000000000000000000000000000081526004018080602001828103825260208152602001807f4f776e61626c653a2063616c6c6572206973206e6f7420746865206f776e657281525060200191505060405180910390fd5b60018060008373ffffffffffffffffffffffffffffffffffffffff1673ffffffffffffffffffffffffffffffffffffffff16815260200190815260200160002060006101000a81548160ff02191690831515021790555050565b6000600260009054906101000a900473ffffffffffffffffffffffffffffffffffffffff1673ffffffffffffffffffffffffffffffffffffffff166366d82b2b84846040518363ffffffff167c0100000000000000000000000000000000000000000000000000000000028152600401808381526020018281526020019250505060206040518083038186803b158015610b4b57600080fd5b505afa158015610b5f573d6000803e3d6000fd5b505050506040513d6020811015610b7557600080fd5b8101908080519060200190929190505050905092915050565b6000600454905090565b610ba0610cfa565b610c12576040517f08c379a00000000000000000000000000000000000000000000000000000000081526004018080602001828103825260208152602001807f4f776e61626c653a2063616c6c6572206973206e6f7420746865206f776e657281525060200191505060405180910390fd5b600073ffffffffffffffffffffffffffffffffffffffff166000809054906101000a900473ffffffffffffffffffffffffffffffffffffffff1673ffffffffffffffffffffffffffffffffffffffff167f8be0079c531659141344cd1fd0a4f28419497f9722a3daafe3b4186f6b6457e060405160405180910390a360008060006101000a81548173ffffffffffffffffffffffffffffffffffffffff021916908373ffffffffffffffffffffffffffffffffffffffff160217905550565b60008060009054906101000a900473ffffffffffffffffffffffffffffffffffffffff16905090565b60008060009054906101000a900473ffffffffffffffffffffffffffffffffffffffff1673ffffffffffffffffffffffffffffffffffffffff16610d3c6112ca565b73ffffffffffffffffffffffffffffffffffffffff1614905090565b600160003373ffffffffffffffffffffffffffffffffffffffff1673ffffffffffffffffffffffffffffffffffffffff16815260200190815260200160002060009054906101000a900460ff16610dfa576040517f08c379a000000000000000000000000000000000000000000000000000000000815260040180806020018281038252602981526020018061143d6029913960400191505060405180910390fd5b60075460065410610e73576040517f08c379a000000000000000000000000000000000000000000000000000000000815260040180806020018281038252601b8152602001807f4d65726b6c652054726565206174206d6178206361706163697479000000000081525060200191505060405180910390fd5b60006006549050600060065490506001600660008282540192505081905550600083905060008060008090505b6003548160ff1610156110c957600060028681610eb957fe5b061415610f5f57839250600a8160ff1681548110610ed357fe5b906000526020600020015491508360088260ff1681548110610ef157fe5b906000526020600020018190555082600960008360ff16815260200190815260200160002060008781526020019081526020016000208190555081600960008360ff168152602001908152602001600020600060018801815260200190815260200160002081905550610fdb565b60088160ff1681548110610f6f57fe5b9060005260206000200154925083915082600960008360ff16815260200190815260200160002060006001880381526020019081526020016000208190555081600960008360ff1681526020019081526020016000206000878152602001908152602001600020819055505b600260009054906101000a900473ffffffffffffffffffffffffffffffffffffffff1673ffffffffffffffffffffffffffffffffffffffff166366d82b2b84846040518363ffffffff167c0100000000000000000000000000000000000000000000000000000000028152600401808381526020018281526020019250505060206040518083038186803b15801561107257600080fd5b505afa158015611086573d6000803e3d6000fd5b505050506040513d602081101561109c57600080fd5b81019080805190602001909291905050509350600285816110b957fe5b0494508080600101915050610ea0565b508260048190555060058690806001815401808255809150509060018203906000526020600020016000909192909190915055507f039fe56c88c7423b368b110113d8483a6b9ee8fc3d8155d1ea6266f8ed3ef1958686604051808381526020018281526020019250505060405180910390a1505050505050565b6000600654905090565b611156610cfa565b6111c8576040517f08c379a00000000000000000000000000000000000000000000000000000000081526004018080602001828103825260208152602001807f4f776e61626c653a2063616c6c6572206973206e6f7420746865206f776e657281525060200191505060405180910390fd5b6000600160008373ffffffffffffffffffffffffffffffffffffffff1673ffffffffffffffffffffffffffffffffffffffff16815260200190815260200160002060006101000a81548160ff02191690831515021790555050565b60006005828154811061123257fe5b90600052602060002001549050919050565b61124c610cfa565b6112be576040517f08c379a00000000000000000000000000000000000000000000000000000000081526004018080602001828103825260208152602001807f4f776e61626c653a2063616c6c6572206973206e6f7420746865206f776e657281525060200191505060405180910390fd5b6112c7816112d2565b50565b600033905090565b600073ffffffffffffffffffffffffffffffffffffffff168173ffffffffffffffffffffffffffffffffffffffff161415611358576040517f08c379a00000000000000000000000000000000000000000000000000000000081526004018080602001828103825260268152602001806114176026913960400191505060405180910390fd5b8073ffffffffffffffffffffffffffffffffffffffff166000809054906101000a900473ffffffffffffffffffffffffffffffffffffffff1673ffffffffffffffffffffffffffffffffffffffff167f8be0079c531659141344cd1fd0a4f28419497f9722a3daafe3b4186f6b6457e060405160405180910390a3806000806101000a81548173ffffffffffffffffffffffffffffffffffffffff021916908373ffffffffffffffffffffffffffffffffffffffff1602179055505056fe4f776e61626c653a206e6577206f776e657220697320746865207a65726f206164647265737357686974656c6973743a2063616c6c6572206973206e6f7420696e207468652077686974656c6973744d65726b6c65547265653a207472656520726f6f74202f2063757272656e74206c6576656c2068617368206d69736d6174636843616e2774207570646174652061206c656166207768696368206861736e2774206265656e20696e73657274656421a265627a7a72315820d0b03d1868aefb29756641255191538773017bbbd23e2a4247b5168bbea6a43f64736f6c634300050b0032",
  "source": "/*\n * semaphorejs - Zero-knowledge signaling on Ethereum\n * Copyright (C) 2019 Kobi Gurkan <kobigurk@gmail.com>\n * Copyright (C) 2019 Kendrick Tan <kendricktan0814@gmail.com>\n *\n * This file is part of semaphorejs.\n *\n * semaphorejs is free software: you can redistribute it and/or modify\n * it under the terms of the GNU General Public License as published by\n * the Free Software Foundation, either version 3 of the License, or\n * (at your option) any later version.\n *\n * semaphorejs is distributed in the hope that it will be useful,\n * but WITHOUT ANY WARRANTY; without even the implied warranty of\n * MERCHANTABILITY or FITNESS FOR A PARTICULAR PURPOSE.  See the\n * GNU General Public License for more details.\n *\n * You should have received a copy of the GNU General Public License\n * along with semaphorejs.  If not, see <http://www.gnu.org/licenses/>.\n */\n\npragma solidity 0.5.11;\n\nimport \"./Hasher.sol\";\nimport \"./Whitelist.sol\";\n\ncontract MerkleTree is Whitelist {\n  // Hasher object\n  Hasher hasher;\n\n  // Depth of the merkle tree.\n  // Number of leaves = 2^depth\n  uint256 depth;\n\n  // Current tree root\n  uint256 root;\n\n  // Value of the leaves\n  uint256[] leaves;\n\n  // Index to keep track of how many\n  // leaves have been inserted in the tree\n  uint256 nextLeafIndex;\n  uint256 maxLeafIndex;\n\n  // Filled 'subtrees' - used for optimized\n  // inserting of new leaves\n  uint256[] internal filledSubtrees;\n\n  // Filled 'paths' - used for optimized\n  // updating of paths\n  mapping(uint256 => mapping(uint256 => uint256)) internal filledPaths;\n\n  // Stores hashes of zeros\n  uint256[] internal zeros;\n\n  event LeafAdded(uint256 leaf, uint256 leafIndex);\n  event LeafUpdated(uint256 leaf, uint256 leafIndex);\n\n  constructor(uint256 _depth, uint256 _zeroValue, address hasherAddress)\n    public\n  {\n    // Hasher object\n    hasher = Hasher(hasherAddress);\n\n    // Depth of the tree\n    depth = _depth;\n    maxLeafIndex = 2**_depth;\n\n    // 'Caches' zero values and filledSubTrees\n    // for optimized inserts later on\n    zeros.push(_zeroValue);\n    filledSubtrees.push(zeros[0]);\n\n    for (uint8 i = 1; i < depth; i++) {\n      zeros.push(hasher.hashPair(zeros[i - 1], zeros[i - 1]));\n      filledSubtrees.push(zeros[i]);\n    }\n\n    // Calculate current root\n    root = hasher.hashPair(zeros[depth - 1], zeros[depth - 1]);\n    nextLeafIndex = 0;\n  }\n\n  // Inserts (appends) a new leaf into the\n  // merkle tree\n  function insert(uint256 leaf) public whitelisted {\n    require(nextLeafIndex < maxLeafIndex, \"Merkle Tree at max capacity\");\n\n    uint256 leafIndex = nextLeafIndex;\n    uint256 currentIndex = nextLeafIndex;\n    nextLeafIndex += 1;\n\n    uint256 currentLevelHash = leaf;\n    uint256 left;\n    uint256 right;\n\n    for (uint8 i = 0; i < depth; i++) {\n      if (currentIndex % 2 == 0) {\n        left = currentLevelHash;\n        right = zeros[i];\n\n        filledSubtrees[i] = currentLevelHash;\n\n        filledPaths[i][currentIndex] = left;\n        filledPaths[i][currentIndex + 1] = right;\n      } else {\n        left = filledSubtrees[i];\n        right = currentLevelHash;\n\n        filledPaths[i][currentIndex - 1] = left;\n        filledPaths[i][currentIndex] = right;\n      }\n\n      currentLevelHash = hasher.hashPair(left, right);\n      currentIndex /= 2;\n    }\n\n    root = currentLevelHash;\n    leaves.push(leaf);\n\n    emit LeafAdded(leaf, leafIndex);\n  }\n\n  // Updates leaf of merkle tree at index `leafIndex`\n  function update(uint256 leafIndex, uint256 leaf) public whitelisted {\n    require(\n      leafIndex < nextLeafIndex,\n      \"Can't update a leaf which hasn't been inserted!\"\n    );\n\n    uint256 currentIndex = leafIndex;\n\n    uint256[] memory path = new uint256[](depth);\n\n    for (uint8 i = 0; i < depth; i++) {\n      if (currentIndex % 2 == 0) {\n        path[i] = filledPaths[i][currentIndex + 1];\n      } else {\n        path[i] = filledPaths[i][currentIndex - 1];\n      }\n      currentIndex /= 2;\n    }\n\n    uint256 currentLevelHash = leaves[leafIndex];\n    uint256 left;\n    uint256 right;\n\n    currentIndex = leafIndex;\n\n    for (uint8 i = 0; i < depth; i++) {\n      if (currentIndex % 2 == 0) {\n        left = currentLevelHash;\n        right = path[i];\n      } else {\n        left = path[i];\n        right = currentLevelHash;\n      }\n\n      currentLevelHash = hasher.hashPair(left, right);\n      currentIndex /= 2;\n    }\n\n    require(\n      root == currentLevelHash,\n      \"MerkleTree: tree root / current level hash mismatch\"\n    );\n\n    currentIndex = leafIndex;\n    currentLevelHash = leaf;\n\n    for (uint8 i = 0; i < depth; i++) {\n      if (currentIndex % 2 == 0) {\n        left = currentLevelHash;\n        right = path[i];\n\n        filledPaths[i][currentIndex] = left;\n        filledPaths[i][currentIndex + 1] = right;\n      } else {\n        left = path[i];\n        right = currentLevelHash;\n\n        filledPaths[i][currentIndex - 1] = left;\n        filledPaths[i][currentIndex] = right;\n      }\n\n      currentLevelHash = hasher.hashPair(left, right);\n      currentIndex /= 2;\n    }\n\n    root = currentLevelHash;\n    leaves[leafIndex] = leaf;\n\n    emit LeafUpdated(leaf, leafIndex);\n  }\n\n  function hashLeftRight(uint256 left, uint256 right)\n    public\n    view\n    returns (uint256)\n  {\n    return hasher.hashPair(left, right);\n  }\n\n  /*** Getters ***/\n  function getRoot() public view returns (uint256) {\n    return root;\n  }\n\n  function getDepth() public view returns (uint256) {\n    return depth;\n  }\n\n  function getLeafAt(uint256 leafIndex) public view returns (uint256) {\n    return leaves[leafIndex];\n  }\n\n  function getInsertedLeavesNo() public view returns (uint256) {\n    return nextLeafIndex;\n  }\n}\n",
  "sourcePath": "/Users/kendrick/Development/Ethereum/simple-zk-rollups/contracts/contracts/MerkleTree.sol",
  "compiler": {
    "name": "solc",
    "version": "0.5.11+commit.c082d0b4.Emscripten.clang"
  },
  "schemaVersion": "3.0.12",
  "updatedAt": "2020-01-25T01:11:22.993Z",
  "devdoc": {
    "methods": {
      "isOwner()": {
        "details": "Returns true if the caller is the current owner."
      },
      "owner()": {
        "details": "Returns the address of the current owner."
      },
      "renounceOwnership()": {
        "details": "Leaves the contract without owner. It will not be possible to call `onlyOwner` functions anymore. Can only be called by the current owner.     * NOTE: Renouncing ownership will leave the contract without an owner, thereby removing any functionality that is only available to the owner."
      },
      "transferOwnership(address)": {
        "details": "Transfers ownership of the contract to a new account (`newOwner`). Can only be called by the current owner."
      }
    }
  },
  "userdoc": {
    "methods": {
      "getRoot()": {
        "notice": "* Getters **"
      }
    }
  }
}