{
  "contractName": "MerkleTree",
  "abi": [
    {
      "constant": false,
      "inputs": [
        {
          "internalType": "address",
          "name": "user",
          "type": "address"
        }
      ],
      "name": "whitelistAddress",
      "outputs": [],
      "payable": false,
      "stateMutability": "nonpayable",
      "type": "function"
    },
    {
      "constant": false,
      "inputs": [],
      "name": "renounceOwnership",
      "outputs": [],
      "payable": false,
      "stateMutability": "nonpayable",
      "type": "function"
    },
    {
      "constant": true,
      "inputs": [],
      "name": "owner",
      "outputs": [
        {
          "internalType": "address",
          "name": "",
          "type": "address"
        }
      ],
      "payable": false,
      "stateMutability": "view",
      "type": "function"
    },
    {
      "constant": true,
      "inputs": [],
      "name": "isOwner",
      "outputs": [
        {
          "internalType": "bool",
          "name": "",
          "type": "bool"
        }
      ],
      "payable": false,
      "stateMutability": "view",
      "type": "function"
    },
    {
      "constant": false,
      "inputs": [
        {
          "internalType": "address",
          "name": "user",
          "type": "address"
        }
      ],
      "name": "unWhitelistAddress",
      "outputs": [],
      "payable": false,
      "stateMutability": "nonpayable",
      "type": "function"
    },
    {
      "constant": false,
      "inputs": [
        {
          "internalType": "address",
          "name": "newOwner",
          "type": "address"
        }
      ],
      "name": "transferOwnership",
      "outputs": [],
      "payable": false,
      "stateMutability": "nonpayable",
      "type": "function"
    },
    {
      "inputs": [
        {
          "internalType": "uint256",
          "name": "_depth",
          "type": "uint256"
        },
        {
          "internalType": "uint256",
          "name": "_zeroValue",
          "type": "uint256"
        },
        {
          "internalType": "address",
          "name": "hasherAddress",
          "type": "address"
        }
      ],
      "payable": false,
      "stateMutability": "nonpayable",
      "type": "constructor"
    },
    {
      "anonymous": false,
      "inputs": [
        {
          "indexed": false,
          "internalType": "uint256",
          "name": "leaf",
          "type": "uint256"
        },
        {
          "indexed": false,
          "internalType": "uint256",
          "name": "leafIndex",
          "type": "uint256"
        }
      ],
      "name": "LeafAdded",
      "type": "event"
    },
    {
      "anonymous": false,
      "inputs": [
        {
          "indexed": false,
          "internalType": "uint256",
          "name": "leaf",
          "type": "uint256"
        },
        {
          "indexed": false,
          "internalType": "uint256",
          "name": "leafIndex",
          "type": "uint256"
        }
      ],
      "name": "LeafUpdated",
      "type": "event"
    },
    {
      "anonymous": false,
      "inputs": [
        {
          "indexed": true,
          "internalType": "address",
          "name": "previousOwner",
          "type": "address"
        },
        {
          "indexed": true,
          "internalType": "address",
          "name": "newOwner",
          "type": "address"
        }
      ],
      "name": "OwnershipTransferred",
      "type": "event"
    },
    {
      "constant": false,
      "inputs": [
        {
          "internalType": "uint256",
          "name": "leaf",
          "type": "uint256"
        }
      ],
      "name": "insert",
      "outputs": [],
      "payable": false,
      "stateMutability": "nonpayable",
      "type": "function"
    },
    {
      "constant": false,
      "inputs": [
        {
          "internalType": "uint256",
          "name": "leafIndex",
          "type": "uint256"
        },
        {
          "internalType": "uint256",
          "name": "leaf",
          "type": "uint256"
        },
        {
          "internalType": "uint256[]",
          "name": "path",
          "type": "uint256[]"
        }
      ],
      "name": "update",
      "outputs": [],
      "payable": false,
      "stateMutability": "nonpayable",
      "type": "function"
    },
    {
      "constant": true,
      "inputs": [
        {
          "internalType": "uint256",
          "name": "left",
          "type": "uint256"
        },
        {
          "internalType": "uint256",
          "name": "right",
          "type": "uint256"
        }
      ],
      "name": "hashLeftRight",
      "outputs": [
        {
          "internalType": "uint256",
          "name": "",
          "type": "uint256"
        }
      ],
      "payable": false,
      "stateMutability": "view",
      "type": "function"
    },
    {
      "constant": true,
      "inputs": [],
      "name": "getRoot",
      "outputs": [
        {
          "internalType": "uint256",
          "name": "",
          "type": "uint256"
        }
      ],
      "payable": false,
      "stateMutability": "view",
      "type": "function"
    },
    {
      "constant": true,
      "inputs": [],
      "name": "getDepth",
      "outputs": [
        {
          "internalType": "uint256",
          "name": "",
          "type": "uint256"
        }
      ],
      "payable": false,
      "stateMutability": "view",
      "type": "function"
    },
    {
      "constant": true,
      "inputs": [
        {
          "internalType": "uint256",
          "name": "leafIndex",
          "type": "uint256"
        }
      ],
      "name": "getLeafAt",
      "outputs": [
        {
          "internalType": "uint256",
          "name": "",
          "type": "uint256"
        }
      ],
      "payable": false,
      "stateMutability": "view",
      "type": "function"
    },
    {
      "constant": true,
      "inputs": [],
      "name": "getInsertedLeavesNo",
      "outputs": [
        {
          "internalType": "uint256",
          "name": "",
          "type": "uint256"
        }
      ],
      "payable": false,
      "stateMutability": "view",
      "type": "function"
    }
  ],
  "bytecode": "0x60806040523480156200001157600080fd5b50604051620017f0380380620017f0833981810160405260608110156200003757600080fd5b8101908080519060200190929190805190602001909291908051906020019092919050505062000075620004c0640100000000026401000000009004565b6000806101000a81548173ffffffffffffffffffffffffffffffffffffffff021916908373ffffffffffffffffffffffffffffffffffffffff1602179055506000809054906101000a900473ffffffffffffffffffffffffffffffffffffffff1673ffffffffffffffffffffffffffffffffffffffff16600073ffffffffffffffffffffffffffffffffffffffff167f8be0079c531659141344cd1fd0a4f28419497f9722a3daafe3b4186f6b6457e060405160405180910390a380600260006101000a81548173ffffffffffffffffffffffffffffffffffffffff021916908373ffffffffffffffffffffffffffffffffffffffff160217905550826003819055508260020a600781905550600982908060018154018082558091505090600182039060005260206000200160009091929091909150555060086009600081548110620001bf57fe5b906000526020600020015490806001815401808255809150509060018203906000526020600020016000909192909190915055506000600190505b6003548160ff16101562000399576009600260009054906101000a900473ffffffffffffffffffffffffffffffffffffffff1673ffffffffffffffffffffffffffffffffffffffff166366d82b2b60096001850360ff16815481106200025c57fe5b906000526020600020015460096001860360ff16815481106200027b57fe5b90600052602060002001546040518363ffffffff167c0100000000000000000000000000000000000000000000000000000000028152600401808381526020018281526020019250505060206040518083038186803b158015620002de57600080fd5b505afa158015620002f3573d6000803e3d6000fd5b505050506040513d60208110156200030a57600080fd5b81019080805190602001909291905050509080600181540180825580915050906001820390600052602060002001600090919290919091505550600860098260ff16815481106200035757fe5b906000526020600020015490806001815401808255809150509060018203906000526020600020016000909192909190915055508080600101915050620001fa565b50600260009054906101000a900473ffffffffffffffffffffffffffffffffffffffff1673ffffffffffffffffffffffffffffffffffffffff166366d82b2b600960016003540381548110620003eb57fe5b90600052602060002001546009600160035403815481106200040957fe5b90600052602060002001546040518363ffffffff167c0100000000000000000000000000000000000000000000000000000000028152600401808381526020018281526020019250505060206040518083038186803b1580156200046c57600080fd5b505afa15801562000481573d6000803e3d6000fd5b505050506040513d60208110156200049857600080fd5b81019080805190602001909291905050506004819055506000600681905550505050620004c8565b600033905090565b61131880620004d86000396000f3fe608060405234801561001057600080fd5b50600436106100ec576000357c0100000000000000000000000000000000000000000000000000000000900480638f32d59b116100a9578063af41b87111610083578063af41b8711461032d578063cac9ffee1461034b578063d78f71fa1461038f578063f2fde38b146103d1576100ec565b80638f32d59b1461021157806390b5561d14610233578063a4e4725d14610261576100ec565b8063367506ef146100f1578063415665851461010f5780635bb93995146101535780635ca1e1651461019f578063715018a6146101bd5780638da5cb5b146101c7575b600080fd5b6100f9610415565b6040518082815260200191505060405180910390f35b6101516004803603602081101561012557600080fd5b81019080803573ffffffffffffffffffffffffffffffffffffffff16906020019092919050505061041f565b005b6101896004803603604081101561016957600080fd5b8101908080359060200190929190803590602001909291905050506104f3565b6040518082815260200191505060405180910390f35b6101a76105cf565b6040518082815260200191505060405180910390f35b6101c56105d9565b005b6101cf610712565b604051808273ffffffffffffffffffffffffffffffffffffffff1673ffffffffffffffffffffffffffffffffffffffff16815260200191505060405180910390f35b61021961073b565b604051808215151515815260200191505060405180910390f35b61025f6004803603602081101561024957600080fd5b8101908080359060200190929190505050610799565b005b61032b6004803603606081101561027757600080fd5b810190808035906020019092919080359060200190929190803590602001906401000000008111156102a857600080fd5b8201836020820111156102ba57600080fd5b803590602001918460208302840111640100000000831117156102dc57600080fd5b919080806020026020016040519081016040528093929190818152602001838360200280828437600081840152601f19601f820116905080830192505050505050509192919290505050610acf565b005b610335610f60565b6040518082815260200191505060405180910390f35b61038d6004803603602081101561036157600080fd5b81019080803573ffffffffffffffffffffffffffffffffffffffff169060200190929190505050610f6a565b005b6103bb600480360360208110156103a557600080fd5b810190808035906020019092919050505061103f565b6040518082815260200191505060405180910390f35b610413600480360360208110156103e757600080fd5b81019080803573ffffffffffffffffffffffffffffffffffffffff169060200190929190505050611060565b005b6000600354905090565b61042761073b565b610499576040517f08c379a00000000000000000000000000000000000000000000000000000000081526004018080602001828103825260208152602001807f4f776e61626c653a2063616c6c6572206973206e6f7420746865206f776e657281525060200191505060405180910390fd5b60018060008373ffffffffffffffffffffffffffffffffffffffff1673ffffffffffffffffffffffffffffffffffffffff16815260200190815260200160002060006101000a81548160ff02191690831515021790555050565b6000600260009054906101000a900473ffffffffffffffffffffffffffffffffffffffff1673ffffffffffffffffffffffffffffffffffffffff166366d82b2b84846040518363ffffffff167c0100000000000000000000000000000000000000000000000000000000028152600401808381526020018281526020019250505060206040518083038186803b15801561058c57600080fd5b505afa1580156105a0573d6000803e3d6000fd5b505050506040513d60208110156105b657600080fd5b8101908080519060200190929190505050905092915050565b6000600454905090565b6105e161073b565b610653576040517f08c379a00000000000000000000000000000000000000000000000000000000081526004018080602001828103825260208152602001807f4f776e61626c653a2063616c6c6572206973206e6f7420746865206f776e657281525060200191505060405180910390fd5b600073ffffffffffffffffffffffffffffffffffffffff166000809054906101000a900473ffffffffffffffffffffffffffffffffffffffff1673ffffffffffffffffffffffffffffffffffffffff167f8be0079c531659141344cd1fd0a4f28419497f9722a3daafe3b4186f6b6457e060405160405180910390a360008060006101000a81548173ffffffffffffffffffffffffffffffffffffffff021916908373ffffffffffffffffffffffffffffffffffffffff160217905550565b60008060009054906101000a900473ffffffffffffffffffffffffffffffffffffffff16905090565b60008060009054906101000a900473ffffffffffffffffffffffffffffffffffffffff1673ffffffffffffffffffffffffffffffffffffffff1661077d6110e6565b73ffffffffffffffffffffffffffffffffffffffff1614905090565b600160003373ffffffffffffffffffffffffffffffffffffffff1673ffffffffffffffffffffffffffffffffffffffff16815260200190815260200160002060009054906101000a900460ff1661083b576040517f08c379a00000000000000000000000000000000000000000000000000000000081526004018080602001828103825260298152602001806112596029913960400191505060405180910390fd5b600754600654106108b4576040517f08c379a000000000000000000000000000000000000000000000000000000000815260040180806020018281038252601b8152602001807f4d65726b6c652054726565206174206d6178206361706163697479000000000081525060200191505060405180910390fd5b60006006549050600060065490506001600660008282540192505081905550600083905060008060008090505b6003548160ff161015610a54576000600286816108fa57fe5b0614156109455783925060098160ff168154811061091457fe5b906000526020600020015491508360088260ff168154811061093257fe5b9060005260206000200181905550610966565b60088160ff168154811061095557fe5b906000526020600020015492508391505b600260009054906101000a900473ffffffffffffffffffffffffffffffffffffffff1673ffffffffffffffffffffffffffffffffffffffff166366d82b2b84846040518363ffffffff167c0100000000000000000000000000000000000000000000000000000000028152600401808381526020018281526020019250505060206040518083038186803b1580156109fd57600080fd5b505afa158015610a11573d6000803e3d6000fd5b505050506040513d6020811015610a2757600080fd5b8101908080519060200190929190505050935060028581610a4457fe5b04945080806001019150506108e1565b508260048190555060058690806001815401808255809150509060018203906000526020600020016000909192909190915055507f039fe56c88c7423b368b110113d8483a6b9ee8fc3d8155d1ea6266f8ed3ef1958686604051808381526020018281526020019250505060405180910390a1505050505050565b600160003373ffffffffffffffffffffffffffffffffffffffff1673ffffffffffffffffffffffffffffffffffffffff16815260200190815260200160002060009054906101000a900460ff16610b71576040517f08c379a00000000000000000000000000000000000000000000000000000000081526004018080602001828103825260298152602001806112596029913960400191505060405180910390fd5b6006548310610bcb576040517f08c379a000000000000000000000000000000000000000000000000000000000815260040180806020018281038252602f8152602001806112b5602f913960400191505060405180910390fd5b6000839050600060058581548110610bdf57fe5b9060005260206000200154905060008060008090505b6003548160ff161015610d4157600060028681610c0e57fe5b061415610c3657839250858160ff1681518110610c2757fe5b60200260200101519150610c53565b858160ff1681518110610c4557fe5b602002602001015192508391505b600260009054906101000a900473ffffffffffffffffffffffffffffffffffffffff1673ffffffffffffffffffffffffffffffffffffffff166366d82b2b84846040518363ffffffff167c0100000000000000000000000000000000000000000000000000000000028152600401808381526020018281526020019250505060206040518083038186803b158015610cea57600080fd5b505afa158015610cfe573d6000803e3d6000fd5b505050506040513d6020811015610d1457600080fd5b8101908080519060200190929190505050935060028581610d3157fe5b0494508080600101915050610bf5565b508260045414610d9c576040517f08c379a00000000000000000000000000000000000000000000000000000000081526004018080602001828103825260338152602001806112826033913960400191505060405180910390fd5b86935085925060008090505b6003548160ff161015610ef457600060028681610dc157fe5b061415610de957839250858160ff1681518110610dda57fe5b60200260200101519150610e06565b858160ff1681518110610df857fe5b602002602001015192508391505b600260009054906101000a900473ffffffffffffffffffffffffffffffffffffffff1673ffffffffffffffffffffffffffffffffffffffff166366d82b2b84846040518363ffffffff167c0100000000000000000000000000000000000000000000000000000000028152600401808381526020018281526020019250505060206040518083038186803b158015610e9d57600080fd5b505afa158015610eb1573d6000803e3d6000fd5b505050506040513d6020811015610ec757600080fd5b8101908080519060200190929190505050935060028581610ee457fe5b0494508080600101915050610da8565b50826004819055508560058881548110610f0a57fe5b90600052602060002001819055507f5983a314e5149c32e4931f98348011a8eaa8d5546981ce338f790050fad852698688604051808381526020018281526020019250505060405180910390a150505050505050565b6000600654905090565b610f7261073b565b610fe4576040517f08c379a00000000000000000000000000000000000000000000000000000000081526004018080602001828103825260208152602001807f4f776e61626c653a2063616c6c6572206973206e6f7420746865206f776e657281525060200191505060405180910390fd5b6000600160008373ffffffffffffffffffffffffffffffffffffffff1673ffffffffffffffffffffffffffffffffffffffff16815260200190815260200160002060006101000a81548160ff02191690831515021790555050565b60006005828154811061104e57fe5b90600052602060002001549050919050565b61106861073b565b6110da576040517f08c379a00000000000000000000000000000000000000000000000000000000081526004018080602001828103825260208152602001807f4f776e61626c653a2063616c6c6572206973206e6f7420746865206f776e657281525060200191505060405180910390fd5b6110e3816110ee565b50565b600033905090565b600073ffffffffffffffffffffffffffffffffffffffff168173ffffffffffffffffffffffffffffffffffffffff161415611174576040517f08c379a00000000000000000000000000000000000000000000000000000000081526004018080602001828103825260268152602001806112336026913960400191505060405180910390fd5b8073ffffffffffffffffffffffffffffffffffffffff166000809054906101000a900473ffffffffffffffffffffffffffffffffffffffff1673ffffffffffffffffffffffffffffffffffffffff167f8be0079c531659141344cd1fd0a4f28419497f9722a3daafe3b4186f6b6457e060405160405180910390a3806000806101000a81548173ffffffffffffffffffffffffffffffffffffffff021916908373ffffffffffffffffffffffffffffffffffffffff1602179055505056fe4f776e61626c653a206e6577206f776e657220697320746865207a65726f206164647265737357686974656c6973743a2063616c6c6572206973206e6f7420696e207468652077686974656c6973744d65726b6c65547265653a207472656520726f6f74202f2063757272656e74206c6576656c2068617368206d69736d6174636843616e2774207570646174652061206c656166207768696368206861736e2774206265656e20696e73657274656421a265627a7a72315820e9ec89246988f2403ebcaaa917c4a0824774457a06c3e893630670e7c27e6a4764736f6c634300050b0032",
  "source": "/*\n * semaphorejs - Zero-knowledge signaling on Ethereum\n * Copyright (C) 2019 Kobi Gurkan <kobigurk@gmail.com>\n * Copyright (C) 2019 Kendrick Tan <kendricktan0814@gmail.com>\n *\n * This file is part of semaphorejs.\n *\n * semaphorejs is free software: you can redistribute it and/or modify\n * it under the terms of the GNU General Public License as published by\n * the Free Software Foundation, either version 3 of the License, or\n * (at your option) any later version.\n *\n * semaphorejs is distributed in the hope that it will be useful,\n * but WITHOUT ANY WARRANTY; without even the implied warranty of\n * MERCHANTABILITY or FITNESS FOR A PARTICULAR PURPOSE.  See the\n * GNU General Public License for more details.\n *\n * You should have received a copy of the GNU General Public License\n * along with semaphorejs.  If not, see <http://www.gnu.org/licenses/>.\n */\n\npragma solidity 0.5.11;\n\nimport \"./Hasher.sol\";\nimport \"./Whitelist.sol\";\n\n\ncontract MerkleTree is Whitelist {\n    // Hasher object\n    Hasher hasher;\n\n    // Depth of the merkle tree.\n    // Number of leaves = 2^depth\n    uint256 depth;\n\n    // Current tree root\n    uint256 root;\n\n    // Value of the leaves\n    uint256[] leaves;\n\n    // Index to keep track of how many\n    // leaves have been inserted in the tree\n    uint256 nextLeafIndex;\n    uint256 maxLeafIndex;\n\n    // Filled 'subtrees' - used for optimized\n    // inserting of new leaves\n    uint256[] internal filledSubtrees;\n\n    // Stores hashes of zeros\n    uint256[] internal zeros;\n\n    event LeafAdded(uint256 leaf, uint256 leafIndex);\n    event LeafUpdated(uint256 leaf, uint256 leafIndex);\n\n    constructor(\n      uint256 _depth,\n      uint256 _zeroValue,\n      address hasherAddress\n    ) public {\n        // Hasher object\n        hasher = Hasher(hasherAddress);\n\n        // Depth of the tree\n        depth = _depth;\n        maxLeafIndex = 2**_depth;\n\n        // 'Caches' zero values and filledSubTrees\n        // for optimized inserts later on\n        zeros.push(_zeroValue);\n        filledSubtrees.push(zeros[0]);\n\n        for (uint8 i = 1; i < depth; i++) {\n            zeros.push(hasher.hashPair(zeros[i-1], zeros[i-1]));\n            filledSubtrees.push(zeros[i]);\n        }\n\n        // Calculate current root\n        root = hasher.hashPair(zeros[depth - 1], zeros[depth - 1]);\n        nextLeafIndex = 0;\n    }\n\n\n    // Inserts (appends) a new leaf into the\n    // merkle tree\n    function insert(uint256 leaf) public whitelisted {\n        require(nextLeafIndex < maxLeafIndex, \"Merkle Tree at max capacity\");\n\n        uint256 leafIndex = nextLeafIndex;\n        uint256 currentIndex = nextLeafIndex;\n        nextLeafIndex += 1;\n\n        uint256 currentLevelHash = leaf;\n        uint256 left;\n        uint256 right;\n\n        for (uint8 i = 0; i < depth; i++) {\n            if (currentIndex % 2 == 0) {\n                left = currentLevelHash;\n                right = zeros[i];\n\n                filledSubtrees[i] = currentLevelHash;\n            } else {\n                left = filledSubtrees[i];\n                right = currentLevelHash;\n            }\n\n            currentLevelHash = hasher.hashPair(left, right);\n            currentIndex /= 2;\n        }\n\n        root = currentLevelHash;\n        leaves.push(leaf);\n\n        emit LeafAdded(leaf, leafIndex);\n    }\n\n    // Updates leaf of merkle tree at index `leafIndex`\n    function update(\n        uint256 leafIndex,\n        uint256 leaf,\n        uint256[] memory path\n    ) public whitelisted {\n        require(leafIndex < nextLeafIndex, \"Can't update a leaf which hasn't been inserted!\");\n\n        uint256 currentIndex = leafIndex;\n\n        uint256 currentLevelHash = leaves[leafIndex];\n        uint256 left;\n        uint256 right;\n\n        for (uint8 i = 0; i < depth; i++) {\n            if (currentIndex % 2 == 0) {\n                left = currentLevelHash;\n                right = path[i];\n            } else {\n                left = path[i];\n                right = currentLevelHash;\n            }\n\n            currentLevelHash = hasher.hashPair(left, right);\n            currentIndex /= 2;\n        }\n\n        require(root == currentLevelHash, \"MerkleTree: tree root / current level hash mismatch\");\n\n        currentIndex = leafIndex;\n        currentLevelHash = leaf;\n\n        for (uint8 i = 0; i < depth; i++) {\n            if (currentIndex % 2 == 0) {\n                left = currentLevelHash;\n                right = path[i];\n            } else {\n                left = path[i];\n                right = currentLevelHash;\n            }\n\n            currentLevelHash = hasher.hashPair(left, right);\n            currentIndex /= 2;\n        }\n\n        root = currentLevelHash;\n        leaves[leafIndex] = leaf;\n\n        emit LeafUpdated(leaf, leafIndex);\n    }\n\n    function hashLeftRight(uint256 left, uint256 right) public view returns (uint256) {\n      return hasher.hashPair(left, right);\n    }\n\n    /*** Getters ***/\n    function getRoot() public view returns (uint256) {\n        return root;\n    }\n\n    function getDepth() public view returns (uint256) {\n        return depth;\n    }\n\n    function getLeafAt(uint256 leafIndex) public view returns (uint256) {\n        return leaves[leafIndex];\n    }\n\n    function getInsertedLeavesNo() public view returns (uint256) {\n        return nextLeafIndex;\n    }\n}",
  "sourcePath": "/Users/kendrick/Development/Ethereum/simple-zk-rollups/contracts/contracts/MerkleTree.sol",
  "compiler": {
    "name": "solc",
    "version": "0.5.11+commit.c082d0b4.Emscripten.clang"
  },
  "schemaVersion": "3.0.21",
  "updatedAt": "2020-01-23T07:21:25.872Z",
  "networkType": "ethereum",
  "devdoc": {
    "methods": {
      "isOwner()": {
        "details": "Returns true if the caller is the current owner."
      },
      "owner()": {
        "details": "Returns the address of the current owner."
      },
      "renounceOwnership()": {
        "details": "Leaves the contract without owner. It will not be possible to call `onlyOwner` functions anymore. Can only be called by the current owner.     * NOTE: Renouncing ownership will leave the contract without an owner, thereby removing any functionality that is only available to the owner."
      },
      "transferOwnership(address)": {
        "details": "Transfers ownership of the contract to a new account (`newOwner`). Can only be called by the current owner."
      }
    }
  },
  "userdoc": {
    "methods": {
      "getRoot()": {
        "notice": "* Getters **"
      }
    }
  }
}