{
  "contractName": "RollUp",
  "abi": [
    {
      "inputs": [
        {
          "internalType": "address",
          "name": "hasherAddress",
          "type": "address"
        },
        {
          "internalType": "address",
          "name": "balanceTreeAddress",
          "type": "address"
        },
        {
          "internalType": "address",
          "name": "withdrawVerifierAddress",
          "type": "address"
        }
      ],
      "payable": false,
      "stateMutability": "nonpayable",
      "type": "constructor"
    },
    {
      "anonymous": false,
      "inputs": [
        {
          "indexed": false,
          "internalType": "uint256",
          "name": "balanceTreeIndex",
          "type": "uint256"
        },
        {
          "indexed": false,
          "internalType": "uint256",
          "name": "publicKeyX",
          "type": "uint256"
        },
        {
          "indexed": false,
          "internalType": "uint256",
          "name": "publicKeyY",
          "type": "uint256"
        },
        {
          "indexed": false,
          "internalType": "uint256",
          "name": "balance",
          "type": "uint256"
        },
        {
          "indexed": false,
          "internalType": "uint256",
          "name": "nonce",
          "type": "uint256"
        }
      ],
      "name": "Deposit",
      "type": "event"
    },
    {
      "anonymous": false,
      "inputs": [
        {
          "indexed": false,
          "internalType": "uint256",
          "name": "balanceTreeIndex",
          "type": "uint256"
        },
        {
          "indexed": false,
          "internalType": "uint256",
          "name": "publicKeyX",
          "type": "uint256"
        },
        {
          "indexed": false,
          "internalType": "uint256",
          "name": "publicKeyY",
          "type": "uint256"
        },
        {
          "indexed": false,
          "internalType": "uint256",
          "name": "balance",
          "type": "uint256"
        },
        {
          "indexed": false,
          "internalType": "uint256",
          "name": "nonce",
          "type": "uint256"
        }
      ],
      "name": "Withdraw",
      "type": "event"
    },
    {
      "constant": true,
      "inputs": [
        {
          "internalType": "uint256",
          "name": "publicKeyX",
          "type": "uint256"
        },
        {
          "internalType": "uint256",
          "name": "publicKeyY",
          "type": "uint256"
        }
      ],
      "name": "isPublicKeyRegistered",
      "outputs": [
        {
          "internalType": "bool",
          "name": "",
          "type": "bool"
        }
      ],
      "payable": false,
      "stateMutability": "view",
      "type": "function"
    },
    {
      "constant": true,
      "inputs": [
        {
          "internalType": "uint256",
          "name": "index",
          "type": "uint256"
        }
      ],
      "name": "getUserKey",
      "outputs": [
        {
          "internalType": "uint256",
          "name": "",
          "type": "uint256"
        }
      ],
      "payable": false,
      "stateMutability": "view",
      "type": "function"
    },
    {
      "constant": true,
      "inputs": [
        {
          "internalType": "uint256",
          "name": "publicKeyHash",
          "type": "uint256"
        }
      ],
      "name": "getUserData",
      "outputs": [
        {
          "internalType": "uint256",
          "name": "",
          "type": "uint256"
        },
        {
          "internalType": "uint256",
          "name": "",
          "type": "uint256"
        },
        {
          "internalType": "uint256",
          "name": "",
          "type": "uint256"
        },
        {
          "internalType": "uint256",
          "name": "",
          "type": "uint256"
        },
        {
          "internalType": "uint256",
          "name": "",
          "type": "uint256"
        }
      ],
      "payable": false,
      "stateMutability": "view",
      "type": "function"
    },
    {
      "constant": false,
      "inputs": [
        {
          "internalType": "uint256[2]",
          "name": "a",
          "type": "uint256[2]"
        },
        {
          "internalType": "uint256[2][2]",
          "name": "b",
          "type": "uint256[2][2]"
        },
        {
          "internalType": "uint256[2]",
          "name": "c",
          "type": "uint256[2]"
        },
        {
          "internalType": "uint256[3]",
          "name": "input",
          "type": "uint256[3]"
        }
      ],
      "name": "withdrawAll",
      "outputs": [],
      "payable": false,
      "stateMutability": "nonpayable",
      "type": "function"
    },
    {
      "constant": false,
      "inputs": [
        {
          "internalType": "uint256",
          "name": "amount",
          "type": "uint256"
        },
        {
          "internalType": "uint256[2]",
          "name": "a",
          "type": "uint256[2]"
        },
        {
          "internalType": "uint256[2][2]",
          "name": "b",
          "type": "uint256[2][2]"
        },
        {
          "internalType": "uint256[2]",
          "name": "c",
          "type": "uint256[2]"
        },
        {
          "internalType": "uint256[3]",
          "name": "input",
          "type": "uint256[3]"
        }
      ],
      "name": "withdraw",
      "outputs": [],
      "payable": false,
      "stateMutability": "nonpayable",
      "type": "function"
    },
    {
      "constant": false,
      "inputs": [
        {
          "internalType": "uint256",
          "name": "publicKeyX",
          "type": "uint256"
        },
        {
          "internalType": "uint256",
          "name": "publicKeyY",
          "type": "uint256"
        }
      ],
      "name": "deposit",
      "outputs": [],
      "payable": true,
      "stateMutability": "payable",
      "type": "function"
    },
    {
      "constant": true,
      "inputs": [],
      "name": "getAccuredFees",
      "outputs": [
        {
          "internalType": "uint256",
          "name": "",
          "type": "uint256"
        }
      ],
      "payable": false,
      "stateMutability": "view",
      "type": "function"
    },
    {
      "constant": false,
      "inputs": [],
      "name": "withdrawAccuredFees",
      "outputs": [],
      "payable": false,
      "stateMutability": "nonpayable",
      "type": "function"
    }
  ],
  "bytecode": "0x608060405234801561001057600080fd5b5060405161160e38038061160e8339818101604052606081101561003357600080fd5b81019080805190602001909291908051906020019092919080519060200190929190505050336000806101000a81548173ffffffffffffffffffffffffffffffffffffffff021916908373ffffffffffffffffffffffffffffffffffffffff16021790555082600160006101000a81548173ffffffffffffffffffffffffffffffffffffffff021916908373ffffffffffffffffffffffffffffffffffffffff16021790555081600260006101000a81548173ffffffffffffffffffffffffffffffffffffffff021916908373ffffffffffffffffffffffffffffffffffffffff16021790555080600360006101000a81548173ffffffffffffffffffffffffffffffffffffffff021916908373ffffffffffffffffffffffffffffffffffffffff1602179055506000600981905550505050611499806101756000396000f3fe608060405260043610610098576000357c010000000000000000000000000000000000000000000000000000000090048063b86156971161006b578063b8615697146102c2578063d7a71b9a14610430578063dd1e26511461048d578063e2bbb158146104dc57610098565b80631fef580c1461009d5780635f2ee1bd146101085780637d23238c146102805780638cd1f20d146102ab575b600080fd5b3480156100a957600080fd5b506100d6600480360360208110156100c057600080fd5b8101908080359060200190929190505050610514565b604051808681526020018581526020018481526020018381526020018281526020019550505050505060405180910390f35b34801561011457600080fd5b5061027e600480360361018081101561012c57600080fd5b810190808035906020019092919080604001906002806020026040519081016040528092919082600260200280828437600081840152601f19601f82011690508083019250505050505091929192908060800190600280602002604051908101604052809291906000905b828210156101eb578382604002016002806020026040519081016040528092919082600260200280828437600081840152601f19601f82011690508083019250505050505081526020019060010190610197565b50505050919291929080604001906002806020026040519081016040528092919082600260200280828437600081840152601f19601f820116905080830192505050505050919291929080606001906003806020026040519081016040528092919082600360200280828437600081840152601f19601f82011690508083019250505050505091929192905050506105a3565b005b34801561028c57600080fd5b50610295610ad4565b6040518082815260200191505060405180910390f35b3480156102b757600080fd5b506102c0610ade565b005b3480156102ce57600080fd5b5061042e60048036036101608110156102e657600080fd5b8101908080604001906002806020026040519081016040528092919082600260200280828437600081840152601f19601f82011690508083019250505050505091929192908060800190600280602002604051908101604052809291906000905b8282101561039b578382604002016002806020026040519081016040528092919082600260200280828437600081840152601f19601f82011690508083019250505050505081526020019060010190610347565b50505050919291929080604001906002806020026040519081016040528092919082600260200280828437600081840152601f19601f820116905080830192505050505050919291929080606001906003806020026040519081016040528092919082600360200280828437600081840152601f19601f8201169050808301925050505050509192919290505050610bd6565b005b34801561043c57600080fd5b506104736004803603604081101561045357600080fd5b810190808035906020019092919080359060200190929190505050610dc7565b604051808215151515815260200191505060405180910390f35b34801561049957600080fd5b506104c6600480360360208110156104b057600080fd5b8101908080359060200190929190505050610ec8565b6040518082815260200191505060405180910390f35b610512600480360360408110156104f257600080fd5b810190808035906020019092919080359060200190929190505050610ee5565b005b60008060008060006105246113e6565b600560008881526020019081526020016000206040518060a001604052908160008201548152602001600182015481526020016002820154815260200160038201548152602001600482015481525050905080600001518160200151826040015183606001518460800151955095509550955095505091939590929450565b6000816000600381106105b257fe5b602002015190506000826001600381106105c857fe5b602002015190506000836002600381106105de57fe5b602002015190506007600082815260200190815260200160002060009054906101000a900460ff1615610679576040517f08c379a00000000000000000000000000000000000000000000000000000000081526004018080602001828103825260178152602001807f4e756c6c696669657220686173206265656e207573656400000000000000000081525060200191505060405180910390fd5b6000600360009054906101000a900473ffffffffffffffffffffffffffffffffffffffff1673ffffffffffffffffffffffffffffffffffffffff166311479fea898989896040518563ffffffff167c01000000000000000000000000000000000000000000000000000000000281526004018085600260200280838360005b838110156107135780820151818401526020810190506106f8565b505050509050018460026000925b818410156107675782846020020151600260200280838360005b8381101561075657808201518184015260208101905061073b565b505050509050019260010192610721565b9250505083600260200280838360005b83811015610792578082015181840152602081019050610777565b5050505090500182600360200280838360005b838110156107c05780820151818401526020810190506107a5565b5050505090500194505050505060206040518083038186803b1580156107e557600080fd5b505afa1580156107f9573d6000803e3d6000fd5b505050506040513d602081101561080f57600080fd5b8101908080519060200190929190505050905080610895576040517f08c379a000000000000000000000000000000000000000000000000000000000815260040180806020018281038252601e8152602001807f556e617574686f72697a656420746f2077697468647261772066756e6473000081525060200191505060405180910390fd5b6000600160009054906101000a900473ffffffffffffffffffffffffffffffffffffffff1673ffffffffffffffffffffffffffffffffffffffff166366d82b2b86866040518363ffffffff167c0100000000000000000000000000000000000000000000000000000000028152600401808381526020018281526020019250505060206040518083038186803b15801561092e57600080fd5b505afa158015610942573d6000803e3d6000fd5b505050506040513d602081101561095857600080fd5b81019080805190602001909291905050509050600060056000838152602001908152602001600020905080600301548b11156109df576040517f08c379a000000000000000000000000000000000000000000000000000000000815260040180806020018281038252602e815260200180611437602e913960400191505060405180910390fd5b60016007600086815260200190815260200160002060006101000a81548160ff0219169083151502179055508a81600301600082825403925050819055503373ffffffffffffffffffffffffffffffffffffffff166108fc8c9081150290604051600060405180830381858888f19350505050158015610a63573d6000803e3d6000fd5b507f5411c8b0be451a010d4911d19e0a687a853789e0e5236433fe8ee9e144d1f3da8160000154878784600301548560040154604051808681526020018581526020018481526020018381526020018281526020019550505050505060405180910390a15050505050505050505050565b6000600954905090565b6000809054906101000a900473ffffffffffffffffffffffffffffffffffffffff1673ffffffffffffffffffffffffffffffffffffffff163373ffffffffffffffffffffffffffffffffffffffff1614610b83576040517f08c379a00000000000000000000000000000000000000000000000000000000081526004018080602001828103825260218152602001806114166021913960400191505060405180910390fd5b3373ffffffffffffffffffffffffffffffffffffffff166108fc6009549081150290604051600060405180830381858888f19350505050158015610bcb573d6000803e3d6000fd5b506000600981905550565b600081600060038110610be557fe5b60200201519050600082600160038110610bfb57fe5b602002015190506000600160009054906101000a900473ffffffffffffffffffffffffffffffffffffffff1673ffffffffffffffffffffffffffffffffffffffff166366d82b2b84846040518363ffffffff167c0100000000000000000000000000000000000000000000000000000000028152600401808381526020018281526020019250505060206040518083038186803b158015610c9b57600080fd5b505afa158015610caf573d6000803e3d6000fd5b505050506040513d6020811015610cc557600080fd5b81019080805190602001909291905050509050610ce06113e6565b600560008381526020019081526020016000206040518060a00160405290816000820154815260200160018201548152602001600282015481526020016003820154815260200160048201548152505090506000816060015111610dac576040517f08c379a000000000000000000000000000000000000000000000000000000000815260040180806020018281038252601e8152602001807f43616e6e6f74207769746864726177207769746820302062616c616e6365000081525060200191505060405180910390fd5b610dbd8160600151898989896105a3565b5050505050505050565b600080600160009054906101000a900473ffffffffffffffffffffffffffffffffffffffff1673ffffffffffffffffffffffffffffffffffffffff166366d82b2b85856040518363ffffffff167c0100000000000000000000000000000000000000000000000000000000028152600401808381526020018281526020019250505060206040518083038186803b158015610e6157600080fd5b505afa158015610e75573d6000803e3d6000fd5b505050506040513d6020811015610e8b57600080fd5b810190808051906020019092919050505090506006600082815260200190815260200160002060009054906101000a900460ff1691505092915050565b600060086000838152602001908152602001600020549050919050565b6000600160009054906101000a900473ffffffffffffffffffffffffffffffffffffffff1673ffffffffffffffffffffffffffffffffffffffff166366d82b2b84846040518363ffffffff167c0100000000000000000000000000000000000000000000000000000000028152600401808381526020018281526020019250505060206040518083038186803b158015610f7e57600080fd5b505afa158015610f92573d6000803e3d6000fd5b505050506040513d6020811015610fa857600080fd5b8101908080519060200190929190505050905060006005600083815260200190815260200160002090503481600301600082825401925050819055506000600160009054906101000a900473ffffffffffffffffffffffffffffffffffffffff1673ffffffffffffffffffffffffffffffffffffffff1663c73f4f9a8686856003015486600401546040518563ffffffff167c01000000000000000000000000000000000000000000000000000000000281526004018085815260200184815260200183815260200182815260200194505050505060206040518083038186803b15801561109557600080fd5b505afa1580156110a9573d6000803e3d6000fd5b505050506040513d60208110156110bf57600080fd5b810190808051906020019092919050505090506006600084815260200190815260200160002060009054906101000a900460ff166112c65760016006600085815260200190815260200160002060006101000a81548160ff021916908315150217905550848260010181905550838260020181905550600260009054906101000a900473ffffffffffffffffffffffffffffffffffffffff1673ffffffffffffffffffffffffffffffffffffffff1663af41b8716040518163ffffffff167c010000000000000000000000000000000000000000000000000000000002815260040160206040518083038186803b1580156111b957600080fd5b505afa1580156111cd573d6000803e3d6000fd5b505050506040513d60208110156111e357600080fd5b81019080805190602001909291905050508260000181905550600260009054906101000a900473ffffffffffffffffffffffffffffffffffffffff1673ffffffffffffffffffffffffffffffffffffffff166390b5561d826040518263ffffffff167c010000000000000000000000000000000000000000000000000000000002815260040180828152602001915050600060405180830381600087803b15801561128d57600080fd5b505af11580156112a1573d6000803e3d6000fd5b505050508260086000846000015481526020019081526020016000208190555061137c565b600260009054906101000a900473ffffffffffffffffffffffffffffffffffffffff1673ffffffffffffffffffffffffffffffffffffffff16632fb565e88360000154836040518363ffffffff167c01000000000000000000000000000000000000000000000000000000000281526004018083815260200182815260200192505050600060405180830381600087803b15801561136357600080fd5b505af1158015611377573d6000803e3d6000fd5b505050505b7f429ca5f64e18925b7c661f0901b31c18f8ebc5de6aeb8dc059e5b96d8fe8957e8260000154868685600301548660040154604051808681526020018581526020018481526020018381526020018281526020019550505050505060405180910390a15050505050565b6040518060a001604052806000815260200160008152602001600081526020016000815260200160008152509056fe4f6e6c79206f776e65722063616e2063616c6c20746869732066756e6374696f6e576974686472617720616d6f756e74206973206d6f7265207468616e2072656d61696e696e672062616c616e6365a265627a7a723158206d93b37c2ed0b118cd9b0a1ef43e168c73c9d0878f02a1ce991e2dd2c6c9014364736f6c634300050b0032",
  "source": "pragma solidity 0.5.11;\n\nimport \"@openzeppelin/contracts/math/SafeMath.sol\";\n\nimport \"./Hasher.sol\";\nimport \"./Whitelist.sol\";\nimport \"./MerkleTree.sol\";\nimport \"./WithdrawVerifier.sol\";\n\ncontract RollUp {\n  using SafeMath for uint256;\n\n  // Contract owner\n  address owner;\n\n  // Hasher function\n  Hasher hasher;\n\n  // Merkle Tree that represents all users's\n  // deposits\n  MerkleTree balanceTree;\n\n  // ZK Proofs\n  WithdrawVerifier withdrawVerifier;\n\n  // Deposit event\n  event Deposit(\n    uint256 balanceTreeIndex,\n    uint256 publicKeyX,\n    uint256 publicKeyY,\n    uint256 balance,\n    uint256 nonce\n  );\n\n  // Withdraw\n  event Withdraw(\n    uint256 balanceTreeIndex,\n    uint256 publicKeyX,\n    uint256 publicKeyY,\n    uint256 balance,\n    uint256 nonce\n  );\n\n  // Registered users\n  struct User {\n    uint256 balanceTreeLeafIndex;\n    uint256 publicKeyX;\n    uint256 publicKeyY;\n    uint256 balance;\n    uint256 nonce;\n  }\n  mapping(uint256 => address) balanceTreeOwners;\n  mapping(uint256 => User) balanceTreeUsers;\n  mapping(uint256 => bool) isPublicKeysRegistered;\n  mapping(uint256 => bool) usedNullifiers;\n\n  // index => hash(public key)\n  mapping(uint256 => uint256) balanceTreeKeys;\n\n  uint256 accuredFees;\n\n  constructor(\n    address hasherAddress,\n    address balanceTreeAddress,\n    address withdrawVerifierAddress\n  ) public {\n    owner = msg.sender;\n\n    hasher = Hasher(hasherAddress);\n    balanceTree = MerkleTree(balanceTreeAddress);\n    withdrawVerifier = WithdrawVerifier(withdrawVerifierAddress);\n\n    accuredFees = 0;\n  }\n\n  // Checks if public key is registered\n  function isPublicKeyRegistered(uint256 publicKeyX, uint256 publicKeyY)\n    public\n    view\n    returns (bool)\n  {\n    uint256 publicKeyHash = hasher.hashPair(publicKeyX, publicKeyY);\n    return isPublicKeysRegistered[publicKeyHash];\n  }\n\n  function getUserKey(uint256 index) public view returns (uint256) {\n    return balanceTreeKeys[index];\n  }\n\n  function getUserData(uint256 publicKeyHash)\n    public\n    view\n    returns (uint256, uint256, uint256, uint256, uint256)\n  {\n    User memory user = balanceTreeUsers[publicKeyHash];\n\n    return (\n      user.balanceTreeLeafIndex,\n      user.publicKeyX,\n      user.publicKeyY,\n      user.balance,\n      user.nonce\n    );\n  }\n\n  function withdrawAll(\n    uint256[2] memory a,\n    uint256[2][2] memory b,\n    uint256[2] memory c,\n    uint256[3] memory input\n  ) public {\n    // Inputs are the public signal\n    uint256 publicKeyX = input[0];\n    uint256 publicKeyY = input[1];\n\n    uint256 publicKeyHash = hasher.hashPair(publicKeyX, publicKeyY);\n    User memory user = balanceTreeUsers[publicKeyHash];\n    if (user.balance <= 0) {\n      revert(\"Cannot withdraw with 0 balance\");\n    }\n\n    withdraw(user.balance, a, b, c, input);\n  }\n\n  function withdraw(\n    uint256 amount,\n    uint256[2] memory a,\n    uint256[2][2] memory b,\n    uint256[2] memory c,\n    uint256[3] memory input\n  ) public {\n    // Inputs are the public signal\n    uint256 publicKeyX = input[0];\n    uint256 publicKeyY = input[1];\n    uint256 nullifier = input[2];\n\n    if (usedNullifiers[nullifier]) {\n      revert(\"Nullifier has been used\");\n    }\n\n    // Check if proof is valid\n    bool validProof = withdrawVerifier.verifyProof(a, b, c, input);\n    if (!validProof) {\n      revert(\"Unauthorized to withdraw funds\");\n    }\n\n    // CHeck user balance\n    uint256 publicKeyHash = hasher.hashPair(publicKeyX, publicKeyY);\n    User storage user = balanceTreeUsers[publicKeyHash];\n    if (amount > user.balance) {\n      revert(\"Withdraw amount is more than remaining balance\");\n    }\n\n    // Register nullifier as used\n    usedNullifiers[nullifier] = true;\n    user.balance -= amount;\n    msg.sender.transfer(amount);\n\n    emit Withdraw(\n      user.balanceTreeLeafIndex,\n      publicKeyX,\n      publicKeyY,\n      user.balance,\n      user.nonce\n    );\n  }\n\n  function deposit(uint256 publicKeyX, uint256 publicKeyY) public payable {\n    uint256 publicKeyHash = hasher.hashPair(publicKeyX, publicKeyY);\n\n    User storage user = balanceTreeUsers[publicKeyHash];\n    user.balance += msg.value;\n\n    // Insert user into balance tree\n    uint256 leaf = hasher.hashBalanceTreeLeaf(\n      publicKeyX,\n      publicKeyY,\n      user.balance,\n      user.nonce\n    );\n\n    // If its a new user, mark them as registered,\n    // and insert them into the merkleTree\n    if (!isPublicKeysRegistered[publicKeyHash]) {\n      isPublicKeysRegistered[publicKeyHash] = true;\n\n      // Saves user's public key\n      user.publicKeyX = publicKeyX;\n      user.publicKeyY = publicKeyY;\n\n      // Saves user's index in balance tree\n      user.balanceTreeLeafIndex = balanceTree.getInsertedLeavesNo();\n      balanceTree.insert(leaf);\n\n      // Saves user's index in balanceTreeKeys\n      balanceTreeKeys[user.balanceTreeLeafIndex] = publicKeyHash;\n\n    } else {\n      // Updates balance and data in balance tree\n      balanceTree.update(user.balanceTreeLeafIndex, leaf);\n    }\n\n    emit Deposit(\n      user.balanceTreeLeafIndex,\n      publicKeyX,\n      publicKeyY,\n      user.balance,\n      user.nonce\n    );\n  }\n\n  function getAccuredFees() public view returns (uint256) {\n    return accuredFees;\n  }\n\n  function withdrawAccuredFees() public {\n    if (msg.sender != owner) {\n      revert(\"Only owner can call this function\");\n    }\n    msg.sender.transfer(accuredFees);\n    accuredFees = 0;\n  }\n}\n",
  "sourcePath": "/Users/kendrick/Development/Ethereum/simple-zk-rollups/contracts/contracts/RollUp.sol",
  "compiler": {
    "name": "solc",
    "version": "0.5.11+commit.c082d0b4.Emscripten.clang"
  },
  "schemaVersion": "3.0.12",
  "updatedAt": "2020-01-26T05:22:54.053Z",
  "devdoc": {
    "methods": {}
  },
  "userdoc": {
    "methods": {}
  }
}