{
  "contractName": "RollUp",
  "abi": [
    {
      "inputs": [
        {
          "internalType": "address",
          "name": "balanceTreeAddress",
          "type": "address"
        },
        {
          "internalType": "address",
          "name": "hasherAddress",
          "type": "address"
        }
      ],
      "payable": false,
      "stateMutability": "nonpayable",
      "type": "constructor"
    },
    {
      "anonymous": false,
      "inputs": [
        {
          "indexed": false,
          "internalType": "uint256",
          "name": "balanceTreeIndex",
          "type": "uint256"
        },
        {
          "indexed": false,
          "internalType": "uint256",
          "name": "publicKeyX",
          "type": "uint256"
        },
        {
          "indexed": false,
          "internalType": "uint256",
          "name": "publicKeyY",
          "type": "uint256"
        },
        {
          "indexed": false,
          "internalType": "uint256",
          "name": "balance",
          "type": "uint256"
        },
        {
          "indexed": false,
          "internalType": "uint256",
          "name": "nonce",
          "type": "uint256"
        }
      ],
      "name": "Deposit",
      "type": "event"
    },
    {
      "constant": true,
      "inputs": [
        {
          "internalType": "uint256",
          "name": "publicKeyX",
          "type": "uint256"
        },
        {
          "internalType": "uint256",
          "name": "publicKeyY",
          "type": "uint256"
        }
      ],
      "name": "isRegistered",
      "outputs": [
        {
          "internalType": "bool",
          "name": "",
          "type": "bool"
        }
      ],
      "payable": false,
      "stateMutability": "view",
      "type": "function"
    },
    {
      "constant": false,
      "inputs": [
        {
          "internalType": "uint256",
          "name": "publicKeyX",
          "type": "uint256"
        },
        {
          "internalType": "uint256",
          "name": "publicKeyY",
          "type": "uint256"
        }
      ],
      "name": "deposit",
      "outputs": [],
      "payable": true,
      "stateMutability": "payable",
      "type": "function"
    }
  ],
  "bytecode": "0x608060405234801561001057600080fd5b506040516107d83803806107d88339818101604052604081101561003357600080fd5b81019080805190602001909291908051906020019092919050505081600160006101000a81548173ffffffffffffffffffffffffffffffffffffffff021916908373ffffffffffffffffffffffffffffffffffffffff160217905550806000806101000a81548173ffffffffffffffffffffffffffffffffffffffff021916908373ffffffffffffffffffffffffffffffffffffffff16021790555050506106f8806100e06000396000f3fe608060405260043610610046576000357c010000000000000000000000000000000000000000000000000000000090048063a5ff26651461004b578063e2bbb158146100a8575b600080fd5b34801561005757600080fd5b5061008e6004803603604081101561006e57600080fd5b8101908080359060200190929190803590602001909291905050506100e0565b604051808215151515815260200191505060405180910390f35b6100de600480360360408110156100be57600080fd5b8101908080359060200190929190803590602001909291905050506101e0565b005b6000806000809054906101000a900473ffffffffffffffffffffffffffffffffffffffff1673ffffffffffffffffffffffffffffffffffffffff166366d82b2b85856040518363ffffffff167c0100000000000000000000000000000000000000000000000000000000028152600401808381526020018281526020019250505060206040518083038186803b15801561017957600080fd5b505afa15801561018d573d6000803e3d6000fd5b505050506040513d60208110156101a357600080fd5b810190808051906020019092919050505090506003600082815260200190815260200160002060009054906101000a900460ff1691505092915050565b60008060009054906101000a900473ffffffffffffffffffffffffffffffffffffffff1673ffffffffffffffffffffffffffffffffffffffff166366d82b2b84846040518363ffffffff167c0100000000000000000000000000000000000000000000000000000000028152600401808381526020018281526020019250505060206040518083038186803b15801561027857600080fd5b505afa15801561028c573d6000803e3d6000fd5b505050506040513d60208110156102a257600080fd5b81019080805190602001909291905050509050600060026000838152602001908152602001600020905034816003016000828254019250508190555060008060009054906101000a900473ffffffffffffffffffffffffffffffffffffffff1673ffffffffffffffffffffffffffffffffffffffff1663c73f4f9a8686856003015486600401546040518563ffffffff167c01000000000000000000000000000000000000000000000000000000000281526004018085815260200184815260200183815260200182815260200194505050505060206040518083038186803b15801561038e57600080fd5b505afa1580156103a2573d6000803e3d6000fd5b505050506040513d60208110156103b857600080fd5b810190808051906020019092919050505090506003600084815260200190815260200160002060009054906101000a900460ff166105a35760016003600085815260200190815260200160002060006101000a81548160ff021916908315150217905550848260010181905550838260020181905550600160009054906101000a900473ffffffffffffffffffffffffffffffffffffffff1673ffffffffffffffffffffffffffffffffffffffff1663af41b8716040518163ffffffff167c010000000000000000000000000000000000000000000000000000000002815260040160206040518083038186803b1580156104b257600080fd5b505afa1580156104c6573d6000803e3d6000fd5b505050506040513d60208110156104dc57600080fd5b81019080805190602001909291905050508260000181905550600160009054906101000a900473ffffffffffffffffffffffffffffffffffffffff1673ffffffffffffffffffffffffffffffffffffffff166390b5561d826040518263ffffffff167c010000000000000000000000000000000000000000000000000000000002815260040180828152602001915050600060405180830381600087803b15801561058657600080fd5b505af115801561059a573d6000803e3d6000fd5b50505050610659565b600160009054906101000a900473ffffffffffffffffffffffffffffffffffffffff1673ffffffffffffffffffffffffffffffffffffffff16632fb565e88360000154836040518363ffffffff167c01000000000000000000000000000000000000000000000000000000000281526004018083815260200182815260200192505050600060405180830381600087803b15801561064057600080fd5b505af1158015610654573d6000803e3d6000fd5b505050505b7f429ca5f64e18925b7c661f0901b31c18f8ebc5de6aeb8dc059e5b96d8fe8957e8260000154868685600301548660040154604051808681526020018581526020018481526020018381526020018281526020019550505050505060405180910390a1505050505056fea265627a7a723158204a0bf4b3f0b59b705af26ee400a1fec5957947f225421886e92a0a77855c8cf164736f6c634300050b0032",
  "source": "pragma solidity 0.5.11;\n\nimport \"./Hasher.sol\";\nimport \"./Whitelist.sol\";\nimport \"./MerkleTree.sol\";\n\ncontract RollUp {\n    // Hasher function\n    Hasher hasher;\n\n    // Merkle Tree that represents all users's\n    // deposits\n    MerkleTree balanceTree;\n\n    // Deposit event\n    event Deposit(\n        uint256 balanceTreeIndex,\n        uint256 publicKeyX,\n        uint256 publicKeyY,\n        uint256 balance,\n        uint256 nonce\n    );\n\n    // Registered users\n    struct User {\n        uint256 balanceTreeLeafIndex;\n        uint256 publicKeyX;\n        uint256 publicKeyY;\n        uint256 balance;\n        uint256 nonce;\n    }\n    mapping(uint256 => User) balanceTreeUsers;\n    mapping(uint256 => bool) isPublicKeysRegistered;\n\n    constructor(address balanceTreeAddress, address hasherAddress) public {\n        balanceTree = MerkleTree(balanceTreeAddress);\n        hasher = Hasher(hasherAddress);\n    }\n\n    // Checks if public key is registered\n    function isRegistered(uint256 publicKeyX, uint256 publicKeyY)\n        public\n        view\n        returns (bool)\n    {\n        uint256 publicKeyHash = hasher.hashPair(publicKeyX, publicKeyY);\n        return isPublicKeysRegistered[publicKeyHash];\n    }\n\n    function deposit(uint256 publicKeyX, uint256 publicKeyY) public payable {\n        uint256 publicKeyHash = hasher.hashPair(publicKeyX, publicKeyY);\n\n        User storage user = balanceTreeUsers[publicKeyHash];\n        user.balance += msg.value;\n\n        // Insert user into balance tree\n        uint256 leaf = hasher.hashBalanceTreeLeaf(\n            publicKeyX,\n            publicKeyY,\n            user.balance,\n            user.nonce\n        );\n\n        // If its a new user, mark them as registered,\n        // and insert them into the merkleTree\n        if (!isPublicKeysRegistered[publicKeyHash]) {\n            isPublicKeysRegistered[publicKeyHash] = true;\n\n            user.publicKeyX = publicKeyX;\n            user.publicKeyY = publicKeyY;\n\n            // Saves user's index in balance tree\n            user.balanceTreeLeafIndex = balanceTree.getInsertedLeavesNo();\n            balanceTree.insert(leaf);\n        } else {\n            // Updates balance and data in balance tree\n            balanceTree.update(user.balanceTreeLeafIndex, leaf);\n        }\n\n        emit Deposit(\n            user.balanceTreeLeafIndex,\n            publicKeyX,\n            publicKeyY,\n            user.balance,\n            user.nonce\n        );\n    }\n}\n",
  "sourcePath": "/Users/kendrick/Development/Ethereum/simple-zk-rollups/contracts/contracts/RollUp.sol",
  "compiler": {
    "name": "solc",
    "version": "0.5.11+commit.c082d0b4.Emscripten.clang"
  },
  "schemaVersion": "3.0.21",
  "updatedAt": "2020-01-23T19:46:17.722Z",
  "networkType": "ethereum",
  "devdoc": {
    "methods": {}
  },
  "userdoc": {
    "methods": {}
  }
}