{
  "contractName": "RollUp",
  "abi": [
    {
      "inputs": [
        {
          "internalType": "address",
          "name": "balanceTreeAddress",
          "type": "address"
        },
        {
          "internalType": "address",
          "name": "hasherAddress",
          "type": "address"
        }
      ],
      "payable": false,
      "stateMutability": "nonpayable",
      "type": "constructor"
    },
    {
      "anonymous": false,
      "inputs": [
        {
          "indexed": false,
          "internalType": "uint256",
          "name": "balanceTreeIndex",
          "type": "uint256"
        },
        {
          "indexed": false,
          "internalType": "uint256",
          "name": "publicKeyX",
          "type": "uint256"
        },
        {
          "indexed": false,
          "internalType": "uint256",
          "name": "publicKeyY",
          "type": "uint256"
        },
        {
          "indexed": false,
          "internalType": "uint256",
          "name": "balance",
          "type": "uint256"
        },
        {
          "indexed": false,
          "internalType": "uint256",
          "name": "nonce",
          "type": "uint256"
        }
      ],
      "name": "Deposit",
      "type": "event"
    },
    {
      "anonymous": false,
      "inputs": [
        {
          "indexed": false,
          "internalType": "uint256",
          "name": "balanceTreeIndex",
          "type": "uint256"
        },
        {
          "indexed": false,
          "internalType": "uint256",
          "name": "publicKeyX",
          "type": "uint256"
        },
        {
          "indexed": false,
          "internalType": "uint256",
          "name": "publicKeyY",
          "type": "uint256"
        },
        {
          "indexed": false,
          "internalType": "uint256",
          "name": "balance",
          "type": "uint256"
        },
        {
          "indexed": false,
          "internalType": "uint256",
          "name": "nonce",
          "type": "uint256"
        }
      ],
      "name": "Withdraw",
      "type": "event"
    },
    {
      "constant": true,
      "inputs": [
        {
          "internalType": "uint256",
          "name": "publicKeyX",
          "type": "uint256"
        },
        {
          "internalType": "uint256",
          "name": "publicKeyY",
          "type": "uint256"
        }
      ],
      "name": "isRegistered",
      "outputs": [
        {
          "internalType": "bool",
          "name": "",
          "type": "bool"
        }
      ],
      "payable": false,
      "stateMutability": "view",
      "type": "function"
    },
    {
      "constant": true,
      "inputs": [
        {
          "internalType": "uint256",
          "name": "publicKeyX",
          "type": "uint256"
        },
        {
          "internalType": "uint256",
          "name": "publicKeyY",
          "type": "uint256"
        }
      ],
      "name": "getUserData",
      "outputs": [
        {
          "internalType": "uint256",
          "name": "",
          "type": "uint256"
        },
        {
          "internalType": "uint256",
          "name": "",
          "type": "uint256"
        },
        {
          "internalType": "uint256",
          "name": "",
          "type": "uint256"
        },
        {
          "internalType": "uint256",
          "name": "",
          "type": "uint256"
        },
        {
          "internalType": "uint256",
          "name": "",
          "type": "uint256"
        }
      ],
      "payable": false,
      "stateMutability": "view",
      "type": "function"
    },
    {
      "constant": false,
      "inputs": [
        {
          "internalType": "uint256",
          "name": "publicKeyX",
          "type": "uint256"
        },
        {
          "internalType": "uint256",
          "name": "publicKeyY",
          "type": "uint256"
        }
      ],
      "name": "withdrawAll",
      "outputs": [],
      "payable": false,
      "stateMutability": "nonpayable",
      "type": "function"
    },
    {
      "constant": false,
      "inputs": [
        {
          "internalType": "uint256",
          "name": "publicKeyX",
          "type": "uint256"
        },
        {
          "internalType": "uint256",
          "name": "publicKeyY",
          "type": "uint256"
        },
        {
          "internalType": "uint256",
          "name": "amount",
          "type": "uint256"
        }
      ],
      "name": "withdraw",
      "outputs": [],
      "payable": false,
      "stateMutability": "nonpayable",
      "type": "function"
    },
    {
      "constant": false,
      "inputs": [
        {
          "internalType": "uint256",
          "name": "publicKeyX",
          "type": "uint256"
        },
        {
          "internalType": "uint256",
          "name": "publicKeyY",
          "type": "uint256"
        }
      ],
      "name": "deposit",
      "outputs": [],
      "payable": true,
      "stateMutability": "payable",
      "type": "function"
    }
  ],
  "bytecode": "0x608060405234801561001057600080fd5b50604051610e8e380380610e8e8339818101604052604081101561003357600080fd5b81019080805190602001909291908051906020019092919050505081600160006101000a81548173ffffffffffffffffffffffffffffffffffffffff021916908373ffffffffffffffffffffffffffffffffffffffff160217905550806000806101000a81548173ffffffffffffffffffffffffffffffffffffffff021916908373ffffffffffffffffffffffffffffffffffffffff1602179055505050610dae806100e06000396000f3fe608060405260043610610067576000357c0100000000000000000000000000000000000000000000000000000000900480637aff49d71461006c578063a41fe49f146100b1578063a5ff266514610100578063e2bbb1581461015d578063f375131314610195575b600080fd5b34801561007857600080fd5b506100af6004803603604081101561008f57600080fd5b81019080803590602001909291908035906020019092919050505061020a565b005b3480156100bd57600080fd5b506100fe600480360360608110156100d457600080fd5b810190808035906020019092919080359060200190929190803590602001909291905050506103c8565b005b34801561010c57600080fd5b506101436004803603604081101561012357600080fd5b8101908080359060200190929190803590602001909291905050506105d4565b604051808215151515815260200191505060405180910390f35b6101936004803603604081101561017357600080fd5b8101908080359060200190929190803590602001909291905050506106d4565b005b3480156101a157600080fd5b506101d8600480360360408110156101b857600080fd5b810190808035906020019092919080359060200190929190505050610bb7565b604051808681526020018581526020018481526020018381526020018281526020019550505050505060405180910390f35b60008060009054906101000a900473ffffffffffffffffffffffffffffffffffffffff1673ffffffffffffffffffffffffffffffffffffffff166366d82b2b84846040518363ffffffff167c0100000000000000000000000000000000000000000000000000000000028152600401808381526020018281526020019250505060206040518083038186803b1580156102a257600080fd5b505afa1580156102b6573d6000803e3d6000fd5b505050506040513d60208110156102cc57600080fd5b810190808051906020019092919050505090506102e7610d1c565b600260008381526020019081526020016000206040518060a001604052908160008201548152602001600182015481526020016002820154815260200160038201548152602001600482015481525050905060008160600151116103b3576040517f08c379a000000000000000000000000000000000000000000000000000000000815260040180806020018281038252601e8152602001807f43616e6e6f74207769746864726177207769746820302062616c616e6365000081525060200191505060405180910390fd5b6103c2848483606001516103c8565b50505050565b60008060009054906101000a900473ffffffffffffffffffffffffffffffffffffffff1673ffffffffffffffffffffffffffffffffffffffff166366d82b2b85856040518363ffffffff167c0100000000000000000000000000000000000000000000000000000000028152600401808381526020018281526020019250505060206040518083038186803b15801561046057600080fd5b505afa158015610474573d6000803e3d6000fd5b505050506040513d602081101561048a57600080fd5b8101908080519060200190929190505050905060006002600083815260200190815260200160002090508281600301541015610511576040517f08c379a000000000000000000000000000000000000000000000000000000000815260040180806020018281038252602e815260200180610d4c602e913960400191505060405180910390fd5b8281600301600082825403925050819055503373ffffffffffffffffffffffffffffffffffffffff166108fc849081150290604051600060405180830381858888f19350505050158015610569573d6000803e3d6000fd5b507f5411c8b0be451a010d4911d19e0a687a853789e0e5236433fe8ee9e144d1f3da8160000154868684600301548560040154604051808681526020018581526020018481526020018381526020018281526020019550505050505060405180910390a15050505050565b6000806000809054906101000a900473ffffffffffffffffffffffffffffffffffffffff1673ffffffffffffffffffffffffffffffffffffffff166366d82b2b85856040518363ffffffff167c0100000000000000000000000000000000000000000000000000000000028152600401808381526020018281526020019250505060206040518083038186803b15801561066d57600080fd5b505afa158015610681573d6000803e3d6000fd5b505050506040513d602081101561069757600080fd5b810190808051906020019092919050505090506003600082815260200190815260200160002060009054906101000a900460ff1691505092915050565b60008060009054906101000a900473ffffffffffffffffffffffffffffffffffffffff1673ffffffffffffffffffffffffffffffffffffffff166366d82b2b84846040518363ffffffff167c0100000000000000000000000000000000000000000000000000000000028152600401808381526020018281526020019250505060206040518083038186803b15801561076c57600080fd5b505afa158015610780573d6000803e3d6000fd5b505050506040513d602081101561079657600080fd5b81019080805190602001909291905050509050600060026000838152602001908152602001600020905034816003016000828254019250508190555060008060009054906101000a900473ffffffffffffffffffffffffffffffffffffffff1673ffffffffffffffffffffffffffffffffffffffff1663c73f4f9a8686856003015486600401546040518563ffffffff167c01000000000000000000000000000000000000000000000000000000000281526004018085815260200184815260200183815260200182815260200194505050505060206040518083038186803b15801561088257600080fd5b505afa158015610896573d6000803e3d6000fd5b505050506040513d60208110156108ac57600080fd5b810190808051906020019092919050505090506003600084815260200190815260200160002060009054906101000a900460ff16610a975760016003600085815260200190815260200160002060006101000a81548160ff021916908315150217905550848260010181905550838260020181905550600160009054906101000a900473ffffffffffffffffffffffffffffffffffffffff1673ffffffffffffffffffffffffffffffffffffffff1663af41b8716040518163ffffffff167c010000000000000000000000000000000000000000000000000000000002815260040160206040518083038186803b1580156109a657600080fd5b505afa1580156109ba573d6000803e3d6000fd5b505050506040513d60208110156109d057600080fd5b81019080805190602001909291905050508260000181905550600160009054906101000a900473ffffffffffffffffffffffffffffffffffffffff1673ffffffffffffffffffffffffffffffffffffffff166390b5561d826040518263ffffffff167c010000000000000000000000000000000000000000000000000000000002815260040180828152602001915050600060405180830381600087803b158015610a7a57600080fd5b505af1158015610a8e573d6000803e3d6000fd5b50505050610b4d565b600160009054906101000a900473ffffffffffffffffffffffffffffffffffffffff1673ffffffffffffffffffffffffffffffffffffffff16632fb565e88360000154836040518363ffffffff167c01000000000000000000000000000000000000000000000000000000000281526004018083815260200182815260200192505050600060405180830381600087803b158015610b3457600080fd5b505af1158015610b48573d6000803e3d6000fd5b505050505b7f429ca5f64e18925b7c661f0901b31c18f8ebc5de6aeb8dc059e5b96d8fe8957e8260000154868685600301548660040154604051808681526020018581526020018481526020018381526020018281526020019550505050505060405180910390a15050505050565b6000806000806000806000809054906101000a900473ffffffffffffffffffffffffffffffffffffffff1673ffffffffffffffffffffffffffffffffffffffff166366d82b2b89896040518363ffffffff167c0100000000000000000000000000000000000000000000000000000000028152600401808381526020018281526020019250505060206040518083038186803b158015610c5657600080fd5b505afa158015610c6a573d6000803e3d6000fd5b505050506040513d6020811015610c8057600080fd5b81019080805190602001909291905050509050610c9b610d1c565b600260008381526020019081526020016000206040518060a0016040529081600082015481526020016001820154815260200160028201548152602001600382015481526020016004820154815250509050806000015181602001518260400151836060015184608001519650965096509650965050509295509295909350565b6040518060a001604052806000815260200160008152602001600081526020016000815260200160008152509056fe576974686472617720616d6f756e74206973206d6f7265207468616e2072656d61696e696e672062616c616e6365a265627a7a7231582096876ac94ed14075abea6e51a80c0bd976d82d635c6c60cb7d5a4ad68a93870264736f6c634300050b0032",
  "source": "pragma solidity 0.5.11;\n\nimport \"@openzeppelin/contracts/math/SafeMath.sol\";\n\nimport \"./Hasher.sol\";\nimport \"./Whitelist.sol\";\nimport \"./MerkleTree.sol\";\n\ncontract RollUp {\n  using SafeMath for uint256;\n\n  // Hasher function\n  Hasher hasher;\n\n  // Merkle Tree that represents all users's\n  // deposits\n  MerkleTree balanceTree;\n\n  // Deposit event\n  event Deposit(\n    uint256 balanceTreeIndex,\n    uint256 publicKeyX,\n    uint256 publicKeyY,\n    uint256 balance,\n    uint256 nonce\n  );\n\n  // Withdraw\n  event Withdraw(\n    uint256 balanceTreeIndex,\n    uint256 publicKeyX,\n    uint256 publicKeyY,\n    uint256 balance,\n    uint256 nonce\n  );\n\n  // Registered users\n  struct User {\n    uint256 balanceTreeLeafIndex;\n    uint256 publicKeyX;\n    uint256 publicKeyY;\n    uint256 balance;\n    uint256 nonce;\n  }\n  mapping(uint256 => User) balanceTreeUsers;\n  mapping(uint256 => bool) isPublicKeysRegistered;\n\n  constructor(address balanceTreeAddress, address hasherAddress) public {\n    balanceTree = MerkleTree(balanceTreeAddress);\n    hasher = Hasher(hasherAddress);\n  }\n\n  // Checks if public key is registered\n  function isRegistered(uint256 publicKeyX, uint256 publicKeyY)\n    public\n    view\n    returns (bool)\n  {\n    uint256 publicKeyHash = hasher.hashPair(publicKeyX, publicKeyY);\n    return isPublicKeysRegistered[publicKeyHash];\n  }\n\n  function getUserData(uint256 publicKeyX, uint256 publicKeyY)\n    public\n    view\n    returns (uint256, uint256, uint256, uint256, uint256)\n  {\n    uint256 publicKeyHash = hasher.hashPair(publicKeyX, publicKeyY);\n\n    User memory user = balanceTreeUsers[publicKeyHash];\n\n    return (\n      user.balanceTreeLeafIndex,\n      user.publicKeyX,\n      user.publicKeyY,\n      user.balance,\n      user.nonce\n    );\n  }\n\n  function withdrawAll(uint256 publicKeyX, uint256 publicKeyY) public {\n    uint256 publicKeyHash = hasher.hashPair(publicKeyX, publicKeyY);\n\n    User memory user = balanceTreeUsers[publicKeyHash];\n\n    if (user.balance <= 0) {\n      revert(\"Cannot withdraw with 0 balance\");\n    }\n\n    withdraw(publicKeyX, publicKeyY, user.balance);\n  }\n\n  function withdraw(uint256 publicKeyX, uint256 publicKeyY, uint256 amount)\n    public\n  {\n    uint256 publicKeyHash = hasher.hashPair(publicKeyX, publicKeyY);\n\n    User storage user = balanceTreeUsers[publicKeyHash];\n\n    if (user.balance < amount) {\n      revert(\"Withdraw amount is more than remaining balance\");\n    }\n\n    user.balance -= amount;\n    msg.sender.transfer(amount);\n\n    emit Withdraw(\n      user.balanceTreeLeafIndex,\n      publicKeyX,\n      publicKeyY,\n      user.balance,\n      user.nonce\n    );\n  }\n\n  function deposit(uint256 publicKeyX, uint256 publicKeyY) public payable {\n    uint256 publicKeyHash = hasher.hashPair(publicKeyX, publicKeyY);\n\n    User storage user = balanceTreeUsers[publicKeyHash];\n    user.balance += msg.value;\n\n    // Insert user into balance tree\n    uint256 leaf = hasher.hashBalanceTreeLeaf(\n      publicKeyX,\n      publicKeyY,\n      user.balance,\n      user.nonce\n    );\n\n    // If its a new user, mark them as registered,\n    // and insert them into the merkleTree\n    if (!isPublicKeysRegistered[publicKeyHash]) {\n      isPublicKeysRegistered[publicKeyHash] = true;\n\n      user.publicKeyX = publicKeyX;\n      user.publicKeyY = publicKeyY;\n\n      // Saves user's index in balance tree\n      user.balanceTreeLeafIndex = balanceTree.getInsertedLeavesNo();\n      balanceTree.insert(leaf);\n    } else {\n      // Updates balance and data in balance tree\n      balanceTree.update(user.balanceTreeLeafIndex, leaf);\n    }\n\n    emit Deposit(\n      user.balanceTreeLeafIndex,\n      publicKeyX,\n      publicKeyY,\n      user.balance,\n      user.nonce\n    );\n  }\n}\n",
  "sourcePath": "/Users/kendrick/Development/Ethereum/simple-zk-rollups/contracts/contracts/RollUp.sol",
  "compiler": {
    "name": "solc",
    "version": "0.5.11+commit.c082d0b4.Emscripten.clang"
  },
  "schemaVersion": "3.0.12",
  "updatedAt": "2020-01-25T01:11:23.004Z",
  "devdoc": {
    "methods": {}
  },
  "userdoc": {
    "methods": {}
  }
}