{
  "contractName": "RollUp",
  "abi": [
    {
      "inputs": [
        {
          "internalType": "address",
          "name": "balanceTreeAddress",
          "type": "address"
        },
        {
          "internalType": "address",
          "name": "hasherAddress",
          "type": "address"
        }
      ],
      "payable": false,
      "stateMutability": "nonpayable",
      "type": "constructor"
    },
    {
      "anonymous": false,
      "inputs": [
        {
          "indexed": false,
          "internalType": "uint256",
          "name": "balanceTreeIndex",
          "type": "uint256"
        },
        {
          "indexed": false,
          "internalType": "uint256",
          "name": "publicKeyX",
          "type": "uint256"
        },
        {
          "indexed": false,
          "internalType": "uint256",
          "name": "publicKeyY",
          "type": "uint256"
        },
        {
          "indexed": false,
          "internalType": "uint256",
          "name": "balance",
          "type": "uint256"
        },
        {
          "indexed": false,
          "internalType": "uint256",
          "name": "nonce",
          "type": "uint256"
        }
      ],
      "name": "Deposit",
      "type": "event"
    },
    {
      "anonymous": false,
      "inputs": [
        {
          "indexed": false,
          "internalType": "uint256",
          "name": "balanceTreeIndex",
          "type": "uint256"
        },
        {
          "indexed": false,
          "internalType": "uint256",
          "name": "publicKeyX",
          "type": "uint256"
        },
        {
          "indexed": false,
          "internalType": "uint256",
          "name": "publicKeyY",
          "type": "uint256"
        },
        {
          "indexed": false,
          "internalType": "uint256",
          "name": "balance",
          "type": "uint256"
        },
        {
          "indexed": false,
          "internalType": "uint256",
          "name": "nonce",
          "type": "uint256"
        }
      ],
      "name": "Withdraw",
      "type": "event"
    },
    {
      "constant": true,
      "inputs": [
        {
          "internalType": "uint256",
          "name": "publicKeyX",
          "type": "uint256"
        },
        {
          "internalType": "uint256",
          "name": "publicKeyY",
          "type": "uint256"
        }
      ],
      "name": "isPublicKeyRegistered",
      "outputs": [
        {
          "internalType": "bool",
          "name": "",
          "type": "bool"
        }
      ],
      "payable": false,
      "stateMutability": "view",
      "type": "function"
    },
    {
      "constant": true,
      "inputs": [
        {
          "internalType": "uint256",
          "name": "index",
          "type": "uint256"
        }
      ],
      "name": "getUserKey",
      "outputs": [
        {
          "internalType": "uint256",
          "name": "",
          "type": "uint256"
        }
      ],
      "payable": false,
      "stateMutability": "view",
      "type": "function"
    },
    {
      "constant": true,
      "inputs": [
        {
          "internalType": "uint256",
          "name": "publicKeyHash",
          "type": "uint256"
        }
      ],
      "name": "getUserData",
      "outputs": [
        {
          "internalType": "uint256",
          "name": "",
          "type": "uint256"
        },
        {
          "internalType": "uint256",
          "name": "",
          "type": "uint256"
        },
        {
          "internalType": "uint256",
          "name": "",
          "type": "uint256"
        },
        {
          "internalType": "uint256",
          "name": "",
          "type": "uint256"
        },
        {
          "internalType": "uint256",
          "name": "",
          "type": "uint256"
        }
      ],
      "payable": false,
      "stateMutability": "view",
      "type": "function"
    },
    {
      "constant": true,
      "inputs": [
        {
          "internalType": "uint256",
          "name": "publicKeyX",
          "type": "uint256"
        },
        {
          "internalType": "uint256",
          "name": "publicKeyY",
          "type": "uint256"
        }
      ],
      "name": "getUserData",
      "outputs": [
        {
          "internalType": "uint256",
          "name": "",
          "type": "uint256"
        },
        {
          "internalType": "uint256",
          "name": "",
          "type": "uint256"
        },
        {
          "internalType": "uint256",
          "name": "",
          "type": "uint256"
        },
        {
          "internalType": "uint256",
          "name": "",
          "type": "uint256"
        },
        {
          "internalType": "uint256",
          "name": "",
          "type": "uint256"
        }
      ],
      "payable": false,
      "stateMutability": "view",
      "type": "function"
    },
    {
      "constant": false,
      "inputs": [
        {
          "internalType": "uint256",
          "name": "publicKeyX",
          "type": "uint256"
        },
        {
          "internalType": "uint256",
          "name": "publicKeyY",
          "type": "uint256"
        }
      ],
      "name": "withdrawAll",
      "outputs": [],
      "payable": false,
      "stateMutability": "nonpayable",
      "type": "function"
    },
    {
      "constant": false,
      "inputs": [
        {
          "internalType": "uint256",
          "name": "publicKeyX",
          "type": "uint256"
        },
        {
          "internalType": "uint256",
          "name": "publicKeyY",
          "type": "uint256"
        },
        {
          "internalType": "uint256",
          "name": "amount",
          "type": "uint256"
        }
      ],
      "name": "withdraw",
      "outputs": [],
      "payable": false,
      "stateMutability": "nonpayable",
      "type": "function"
    },
    {
      "constant": false,
      "inputs": [
        {
          "internalType": "uint256",
          "name": "publicKeyX",
          "type": "uint256"
        },
        {
          "internalType": "uint256",
          "name": "publicKeyY",
          "type": "uint256"
        }
      ],
      "name": "deposit",
      "outputs": [],
      "payable": true,
      "stateMutability": "payable",
      "type": "function"
    },
    {
      "constant": true,
      "inputs": [],
      "name": "getAccuredFees",
      "outputs": [
        {
          "internalType": "uint256",
          "name": "",
          "type": "uint256"
        }
      ],
      "payable": false,
      "stateMutability": "view",
      "type": "function"
    },
    {
      "constant": false,
      "inputs": [],
      "name": "withdrawAccuredFees",
      "outputs": [],
      "payable": false,
      "stateMutability": "nonpayable",
      "type": "function"
    }
  ],
  "bytecode": "0x608060405234801561001057600080fd5b506040516111913803806111918339818101604052604081101561003357600080fd5b810190808051906020019092919080519060200190929190505050336000806101000a81548173ffffffffffffffffffffffffffffffffffffffff021916908373ffffffffffffffffffffffffffffffffffffffff16021790555081600260006101000a81548173ffffffffffffffffffffffffffffffffffffffff021916908373ffffffffffffffffffffffffffffffffffffffff16021790555080600160006101000a81548173ffffffffffffffffffffffffffffffffffffffff021916908373ffffffffffffffffffffffffffffffffffffffff16021790555060006006819055505050611068806101296000396000f3fe6080604052600436106100a3576000357c010000000000000000000000000000000000000000000000000000000090048063a41fe49f11610076578063a41fe49f1461019a578063d7a71b9a146101e9578063dd1e265114610246578063e2bbb15814610295578063f3751313146102cd576100a3565b80631fef580c146100a85780637aff49d7146101135780637d23238c146101585780638cd1f20d14610183575b600080fd5b3480156100b457600080fd5b506100e1600480360360208110156100cb57600080fd5b8101908080359060200190929190505050610342565b604051808681526020018581526020018481526020018381526020018281526020019550505050505060405180910390f35b34801561011f57600080fd5b506101566004803603604081101561013657600080fd5b8101908080359060200190929190803590602001909291905050506103d1565b005b34801561016457600080fd5b5061016d610590565b6040518082815260200191505060405180910390f35b34801561018f57600080fd5b5061019861059a565b005b3480156101a657600080fd5b506101e7600480360360608110156101bd57600080fd5b810190808035906020019092919080359060200190929190803590602001909291905050506106af565b005b3480156101f557600080fd5b5061022c6004803603604081101561020c57600080fd5b8101908080359060200190929190803590602001909291905050506108bc565b604051808215151515815260200191505060405180910390f35b34801561025257600080fd5b5061027f6004803603602081101561026957600080fd5b81019080803590602001909291905050506109bd565b6040518082815260200191505060405180910390f35b6102cb600480360360408110156102ab57600080fd5b8101908080359060200190929190803590602001909291905050506109da565b005b3480156102d957600080fd5b50610310600480360360408110156102f057600080fd5b810190808035906020019092919080359060200190929190505050610edb565b604051808681526020018581526020018481526020018381526020018281526020019550505050505060405180910390f35b6000806000806000610352610fd6565b600360008881526020019081526020016000206040518060a001604052908160008201548152602001600182015481526020016002820154815260200160038201548152602001600482015481525050905080600001518160200151826040015183606001518460800151955095509550955095505091939590929450565b6000600160009054906101000a900473ffffffffffffffffffffffffffffffffffffffff1673ffffffffffffffffffffffffffffffffffffffff166366d82b2b84846040518363ffffffff167c0100000000000000000000000000000000000000000000000000000000028152600401808381526020018281526020019250505060206040518083038186803b15801561046a57600080fd5b505afa15801561047e573d6000803e3d6000fd5b505050506040513d602081101561049457600080fd5b810190808051906020019092919050505090506104af610fd6565b600360008381526020019081526020016000206040518060a0016040529081600082015481526020016001820154815260200160028201548152602001600382015481526020016004820154815250509050600081606001511161057b576040517f08c379a000000000000000000000000000000000000000000000000000000000815260040180806020018281038252601e8152602001807f43616e6e6f74207769746864726177207769746820302062616c616e6365000081525060200191505060405180910390fd5b61058a848483606001516106af565b50505050565b6000600654905090565b6000809054906101000a900473ffffffffffffffffffffffffffffffffffffffff1673ffffffffffffffffffffffffffffffffffffffff163373ffffffffffffffffffffffffffffffffffffffff161461065c576040517f08c379a000000000000000000000000000000000000000000000000000000000815260040180806020018281038252601c8152602001807f4f6e6c79206f776e65722063616e2063616c6c2066756e6374696f6e0000000081525060200191505060405180910390fd5b3373ffffffffffffffffffffffffffffffffffffffff166108fc6006549081150290604051600060405180830381858888f193505050501580156106a4573d6000803e3d6000fd5b506000600681905550565b6000600160009054906101000a900473ffffffffffffffffffffffffffffffffffffffff1673ffffffffffffffffffffffffffffffffffffffff166366d82b2b85856040518363ffffffff167c0100000000000000000000000000000000000000000000000000000000028152600401808381526020018281526020019250505060206040518083038186803b15801561074857600080fd5b505afa15801561075c573d6000803e3d6000fd5b505050506040513d602081101561077257600080fd5b81019080805190602001909291905050509050600060036000838152602001908152602001600020905082816003015410156107f9576040517f08c379a000000000000000000000000000000000000000000000000000000000815260040180806020018281038252602e815260200180611006602e913960400191505060405180910390fd5b8281600301600082825403925050819055503373ffffffffffffffffffffffffffffffffffffffff166108fc849081150290604051600060405180830381858888f19350505050158015610851573d6000803e3d6000fd5b507f5411c8b0be451a010d4911d19e0a687a853789e0e5236433fe8ee9e144d1f3da8160000154868684600301548560040154604051808681526020018581526020018481526020018381526020018281526020019550505050505060405180910390a15050505050565b600080600160009054906101000a900473ffffffffffffffffffffffffffffffffffffffff1673ffffffffffffffffffffffffffffffffffffffff166366d82b2b85856040518363ffffffff167c0100000000000000000000000000000000000000000000000000000000028152600401808381526020018281526020019250505060206040518083038186803b15801561095657600080fd5b505afa15801561096a573d6000803e3d6000fd5b505050506040513d602081101561098057600080fd5b810190808051906020019092919050505090506004600082815260200190815260200160002060009054906101000a900460ff1691505092915050565b600060056000838152602001908152602001600020549050919050565b6000600160009054906101000a900473ffffffffffffffffffffffffffffffffffffffff1673ffffffffffffffffffffffffffffffffffffffff166366d82b2b84846040518363ffffffff167c0100000000000000000000000000000000000000000000000000000000028152600401808381526020018281526020019250505060206040518083038186803b158015610a7357600080fd5b505afa158015610a87573d6000803e3d6000fd5b505050506040513d6020811015610a9d57600080fd5b8101908080519060200190929190505050905060006003600083815260200190815260200160002090503481600301600082825401925050819055506000600160009054906101000a900473ffffffffffffffffffffffffffffffffffffffff1673ffffffffffffffffffffffffffffffffffffffff1663c73f4f9a8686856003015486600401546040518563ffffffff167c01000000000000000000000000000000000000000000000000000000000281526004018085815260200184815260200183815260200182815260200194505050505060206040518083038186803b158015610b8a57600080fd5b505afa158015610b9e573d6000803e3d6000fd5b505050506040513d6020811015610bb457600080fd5b810190808051906020019092919050505090506004600084815260200190815260200160002060009054906101000a900460ff16610dbb5760016004600085815260200190815260200160002060006101000a81548160ff021916908315150217905550848260010181905550838260020181905550600260009054906101000a900473ffffffffffffffffffffffffffffffffffffffff1673ffffffffffffffffffffffffffffffffffffffff1663af41b8716040518163ffffffff167c010000000000000000000000000000000000000000000000000000000002815260040160206040518083038186803b158015610cae57600080fd5b505afa158015610cc2573d6000803e3d6000fd5b505050506040513d6020811015610cd857600080fd5b81019080805190602001909291905050508260000181905550600260009054906101000a900473ffffffffffffffffffffffffffffffffffffffff1673ffffffffffffffffffffffffffffffffffffffff166390b5561d826040518263ffffffff167c010000000000000000000000000000000000000000000000000000000002815260040180828152602001915050600060405180830381600087803b158015610d8257600080fd5b505af1158015610d96573d6000803e3d6000fd5b5050505082600560008460000154815260200190815260200160002081905550610e71565b600260009054906101000a900473ffffffffffffffffffffffffffffffffffffffff1673ffffffffffffffffffffffffffffffffffffffff16632fb565e88360000154836040518363ffffffff167c01000000000000000000000000000000000000000000000000000000000281526004018083815260200182815260200192505050600060405180830381600087803b158015610e5857600080fd5b505af1158015610e6c573d6000803e3d6000fd5b505050505b7f429ca5f64e18925b7c661f0901b31c18f8ebc5de6aeb8dc059e5b96d8fe8957e8260000154868685600301548660040154604051808681526020018581526020018481526020018381526020018281526020019550505050505060405180910390a15050505050565b600080600080600080600160009054906101000a900473ffffffffffffffffffffffffffffffffffffffff1673ffffffffffffffffffffffffffffffffffffffff166366d82b2b89896040518363ffffffff167c0100000000000000000000000000000000000000000000000000000000028152600401808381526020018281526020019250505060206040518083038186803b158015610f7b57600080fd5b505afa158015610f8f573d6000803e3d6000fd5b505050506040513d6020811015610fa557600080fd5b81019080805190602001909291905050509050610fc181610342565b95509550955095509550509295509295909350565b6040518060a001604052806000815260200160008152602001600081526020016000815260200160008152509056fe576974686472617720616d6f756e74206973206d6f7265207468616e2072656d61696e696e672062616c616e6365a265627a7a723158202257ba41a5201016e974a03e0cb140fd491daf370a23b4fa5ecab775b444ddd964736f6c634300050b0032",
  "source": "pragma solidity 0.5.11;\n\nimport \"@openzeppelin/contracts/math/SafeMath.sol\";\n\nimport \"./Hasher.sol\";\nimport \"./Whitelist.sol\";\nimport \"./MerkleTree.sol\";\n\ncontract RollUp {\n  using SafeMath for uint256;\n\n  // Contract owner\n  address owner;\n\n  // Hasher function\n  Hasher hasher;\n\n  // Merkle Tree that represents all users's\n  // deposits\n  MerkleTree balanceTree;\n\n  // Deposit event\n  event Deposit(\n    uint256 balanceTreeIndex,\n    uint256 publicKeyX,\n    uint256 publicKeyY,\n    uint256 balance,\n    uint256 nonce\n  );\n\n  // Withdraw\n  event Withdraw(\n    uint256 balanceTreeIndex,\n    uint256 publicKeyX,\n    uint256 publicKeyY,\n    uint256 balance,\n    uint256 nonce\n  );\n\n  // Registered users\n  struct User {\n    uint256 balanceTreeLeafIndex;\n    uint256 publicKeyX;\n    uint256 publicKeyY;\n    uint256 balance;\n    uint256 nonce;\n  }\n  mapping(uint256 => User) balanceTreeUsers;\n  mapping(uint256 => bool) isPublicKeysRegistered;\n\n  // index => hash(public key)\n  mapping(uint256 => uint256) balanceTreeKeys;\n\n  uint256 accuredFees;\n\n  constructor(address balanceTreeAddress, address hasherAddress) public {\n    owner = msg.sender;\n    balanceTree = MerkleTree(balanceTreeAddress);\n    hasher = Hasher(hasherAddress);\n\n    accuredFees = 0;\n  }\n\n  // Checks if public key is registered\n  function isPublicKeyRegistered(uint256 publicKeyX, uint256 publicKeyY)\n    public\n    view\n    returns (bool)\n  {\n    uint256 publicKeyHash = hasher.hashPair(publicKeyX, publicKeyY);\n    return isPublicKeysRegistered[publicKeyHash];\n  }\n\n  function getUserKey(uint256 index) public view returns (uint256) {\n    return balanceTreeKeys[index];\n  }\n\n  function getUserData(uint256 publicKeyHash)\n    public\n    view\n    returns (uint256, uint256, uint256, uint256, uint256)\n  {\n    User memory user = balanceTreeUsers[publicKeyHash];\n\n    return (\n      user.balanceTreeLeafIndex,\n      user.publicKeyX,\n      user.publicKeyY,\n      user.balance,\n      user.nonce\n    );\n  }\n\n  function getUserData(uint256 publicKeyX, uint256 publicKeyY)\n    public\n    view\n    returns (uint256, uint256, uint256, uint256, uint256)\n  {\n    uint256 publicKeyHash = hasher.hashPair(publicKeyX, publicKeyY);\n    return getUserData(publicKeyHash);\n  }\n\n  function withdrawAll(uint256 publicKeyX, uint256 publicKeyY) public {\n    uint256 publicKeyHash = hasher.hashPair(publicKeyX, publicKeyY);\n\n    User memory user = balanceTreeUsers[publicKeyHash];\n\n    if (user.balance <= 0) {\n      revert(\"Cannot withdraw with 0 balance\");\n    }\n\n    withdraw(publicKeyX, publicKeyY, user.balance);\n  }\n\n  function withdraw(uint256 publicKeyX, uint256 publicKeyY, uint256 amount)\n    public\n  {\n    uint256 publicKeyHash = hasher.hashPair(publicKeyX, publicKeyY);\n\n    User storage user = balanceTreeUsers[publicKeyHash];\n\n    if (user.balance < amount) {\n      revert(\"Withdraw amount is more than remaining balance\");\n    }\n\n    user.balance -= amount;\n    msg.sender.transfer(amount);\n\n    emit Withdraw(\n      user.balanceTreeLeafIndex,\n      publicKeyX,\n      publicKeyY,\n      user.balance,\n      user.nonce\n    );\n  }\n\n  function deposit(uint256 publicKeyX, uint256 publicKeyY) public payable {\n    uint256 publicKeyHash = hasher.hashPair(publicKeyX, publicKeyY);\n\n    User storage user = balanceTreeUsers[publicKeyHash];\n    user.balance += msg.value;\n\n    // Insert user into balance tree\n    uint256 leaf = hasher.hashBalanceTreeLeaf(\n      publicKeyX,\n      publicKeyY,\n      user.balance,\n      user.nonce\n    );\n\n    // If its a new user, mark them as registered,\n    // and insert them into the merkleTree\n    if (!isPublicKeysRegistered[publicKeyHash]) {\n      isPublicKeysRegistered[publicKeyHash] = true;\n\n      // Saves user's public key\n      user.publicKeyX = publicKeyX;\n      user.publicKeyY = publicKeyY;\n\n      // Saves user's index in balance tree\n      user.balanceTreeLeafIndex = balanceTree.getInsertedLeavesNo();\n      balanceTree.insert(leaf);\n\n      // Saves user's index in balanceTreeKeys\n      balanceTreeKeys[user.balanceTreeLeafIndex] = publicKeyHash;\n\n    } else {\n      // Updates balance and data in balance tree\n      balanceTree.update(user.balanceTreeLeafIndex, leaf);\n    }\n\n    emit Deposit(\n      user.balanceTreeLeafIndex,\n      publicKeyX,\n      publicKeyY,\n      user.balance,\n      user.nonce\n    );\n  }\n\n  function getAccuredFees() public view returns (uint256) {\n    return accuredFees;\n  }\n\n  function withdrawAccuredFees() public {\n    if (msg.sender != owner) {\n      revert(\"Only owner can call function\");\n    }\n    msg.sender.transfer(accuredFees);\n    accuredFees = 0;\n  }\n}\n",
  "sourcePath": "/Users/kendrick/Development/Ethereum/simple-zk-rollups/contracts/contracts/RollUp.sol",
  "compiler": {
    "name": "solc",
    "version": "0.5.11+commit.c082d0b4.Emscripten.clang"
  },
  "schemaVersion": "3.0.12",
  "updatedAt": "2020-01-25T10:38:46.968Z",
  "devdoc": {
    "methods": {}
  },
  "userdoc": {
    "methods": {}
  }
}